{
  "contractName": "Multisig",
  "abi": [
    {
      "inputs": [
        {
          "internalType": "address",
          "name": "_owner1",
          "type": "address"
        },
        {
          "internalType": "address",
          "name": "_owner2",
          "type": "address"
        },
        {
          "internalType": "address",
          "name": "_owner3",
          "type": "address"
        },
        {
          "internalType": "uint256",
          "name": "_limit",
          "type": "uint256"
        }
      ],
      "payable": false,
      "stateMutability": "nonpayable",
      "type": "constructor"
    },
    {
      "constant": true,
      "inputs": [
        {
          "internalType": "address",
          "name": "",
          "type": "address"
        }
      ],
      "name": "isOwner",
      "outputs": [
        {
          "internalType": "bool",
          "name": "",
          "type": "bool"
        }
      ],
      "payable": false,
      "stateMutability": "view",
      "type": "function"
    },
    {
      "constant": true,
      "inputs": [
        {
          "internalType": "uint256",
          "name": "",
          "type": "uint256"
        }
      ],
      "name": "transferRequests",
      "outputs": [
        {
          "internalType": "uint256",
          "name": "amount",
          "type": "uint256"
        },
        {
          "internalType": "address payable",
          "name": "recipient",
          "type": "address"
        },
        {
          "internalType": "uint256",
          "name": "approvalCount",
          "type": "uint256"
        },
        {
          "internalType": "uint256",
          "name": "id",
          "type": "uint256"
        },
        {
          "internalType": "bool",
          "name": "completed",
          "type": "bool"
        }
      ],
      "payable": false,
      "stateMutability": "view",
      "type": "function"
    },
    {
      "constant": true,
      "inputs": [
        {
          "internalType": "address",
          "name": "",
          "type": "address"
        },
        {
          "internalType": "uint256",
          "name": "",
          "type": "uint256"
        }
      ],
      "name": "voted",
      "outputs": [
        {
          "internalType": "bool",
          "name": "",
          "type": "bool"
        }
      ],
      "payable": false,
      "stateMutability": "view",
      "type": "function"
    },
    {
      "constant": false,
      "inputs": [],
      "name": "deposit",
      "outputs": [],
      "payable": true,
      "stateMutability": "payable",
      "type": "function"
    },
    {
      "constant": false,
      "inputs": [
        {
          "internalType": "uint256",
          "name": "_amount",
          "type": "uint256"
        },
        {
          "internalType": "address payable",
          "name": "_recipient",
          "type": "address"
        }
      ],
      "name": "transferRequest",
      "outputs": [],
      "payable": false,
      "stateMutability": "nonpayable",
      "type": "function"
    },
    {
      "constant": false,
      "inputs": [
        {
          "internalType": "uint256",
          "name": "_id",
          "type": "uint256"
        }
      ],
      "name": "approveRequest",
      "outputs": [],
      "payable": false,
      "stateMutability": "nonpayable",
      "type": "function"
    }
  ],
  "bytecode": "0x608060405234801561001057600080fd5b50604051610a03380380610a038339818101604052608081101561003357600080fd5b810190808051906020019092919080519060200190929190805190602001909291908051906020019092919050505060016000808673ffffffffffffffffffffffffffffffffffffffff1673ffffffffffffffffffffffffffffffffffffffff16815260200190815260200160002060006101000a81548160ff02191690831515021790555060016000808573ffffffffffffffffffffffffffffffffffffffff1673ffffffffffffffffffffffffffffffffffffffff16815260200190815260200160002060006101000a81548160ff02191690831515021790555060016000808473ffffffffffffffffffffffffffffffffffffffff1673ffffffffffffffffffffffffffffffffffffffff16815260200190815260200160002060006101000a81548160ff0219169083151502179055508060018190555050505050610882806101816000396000f3fe6080604052600436106100555760003560e01c806303486c401461005a5780632f54bf6e146100f5578063c591aa981461015e578063d0e30db0146101d1578063d7d1bbdb146101db578063d99a16c514610216575b600080fd5b34801561006657600080fd5b506100936004803603602081101561007d57600080fd5b8101908080359060200190929190505050610271565b604051808681526020018573ffffffffffffffffffffffffffffffffffffffff1673ffffffffffffffffffffffffffffffffffffffff168152602001848152602001838152602001821515151581526020019550505050505060405180910390f35b34801561010157600080fd5b506101446004803603602081101561011857600080fd5b81019080803573ffffffffffffffffffffffffffffffffffffffff1690602001909291905050506102e1565b604051808215151515815260200191505060405180910390f35b34801561016a57600080fd5b506101b76004803603604081101561018157600080fd5b81019080803573ffffffffffffffffffffffffffffffffffffffff16906020019092919080359060200190929190505050610301565b604051808215151515815260200191505060405180910390f35b6101d9610330565b005b3480156101e757600080fd5b50610214600480360360208110156101fe57600080fd5b8101908080359060200190929190505050610341565b005b34801561022257600080fd5b5061026f6004803603604081101561023957600080fd5b8101908080359060200190929190803573ffffffffffffffffffffffffffffffffffffffff1690602001909291905050506105cc565b005b6002818154811061027e57fe5b90600052602060002090600502016000915090508060000154908060010160009054906101000a900473ffffffffffffffffffffffffffffffffffffffff16908060020154908060030154908060040160009054906101000a900460ff16905085565b60006020528060005260406000206000915054906101000a900460ff1681565b60036020528160005260406000206020528060005260406000206000915091509054906101000a900460ff1681565b6103e834101561033f57600080fd5b565b60001515600360003373ffffffffffffffffffffffffffffffffffffffff1673ffffffffffffffffffffffffffffffffffffffff168152602001908152602001600020600083815260200190815260200160002060009054906101000a900460ff161515146103fb576040517f08c379a000000000000000000000000000000000000000000000000000000000815260040180806020018281038252602381526020018061082b6023913960400191505060405180910390fd5b6001600360003373ffffffffffffffffffffffffffffffffffffffff1673ffffffffffffffffffffffffffffffffffffffff168152602001908152602001600020600083815260200190815260200160002060006101000a81548160ff0219169083151502179055506002818154811061047157fe5b9060005260206000209060050201600201600081548092919060010191905055506000600282815481106104a157fe5b906000526020600020906005020160020154905060015481106105c8576000479050600283815481106104d057fe5b906000526020600020906005020160010160009054906101000a900473ffffffffffffffffffffffffffffffffffffffff1673ffffffffffffffffffffffffffffffffffffffff166108fc6002858154811061052857fe5b9060005260206000209060050201600001549081150290604051600060405180830381858888f19350505050158015610565573d6000803e3d6000fd5b506002838154811061057357fe5b9060005260206000209060050201600001548103471461058f57fe5b60016002848154811061059e57fe5b906000526020600020906005020160040160006101000a81548160ff021916908315150217905550505b5050565b600115156000803373ffffffffffffffffffffffffffffffffffffffff1673ffffffffffffffffffffffffffffffffffffffff16815260200190815260200160002060009054906101000a900460ff16151514610674576040517f08c379a00000000000000000000000000000000000000000000000000000000081526004018080602001828103825260258152602001806107dc6025913960400191505060405180910390fd5b814710156106cd576040517f08c379a000000000000000000000000000000000000000000000000000000000815260040180806020018281038252602a815260200180610801602a913960400191505060405180910390fd5b60026040518060a001604052808481526020018373ffffffffffffffffffffffffffffffffffffffff1681526020016001548152602001600280549050815260200160001515815250908060018154018082558091505090600182039060005260206000209060050201600090919290919091506000820151816000015560208201518160010160006101000a81548173ffffffffffffffffffffffffffffffffffffffff021916908373ffffffffffffffffffffffffffffffffffffffff160217905550604082015181600201556060820151816003015560808201518160040160006101000a81548160ff0219169083151502179055505050506107d7600280549050610341565b505056fe4e6f742061636365737369626c6520746f20756e617574686f72697a6564206f776e65727352657175657374656420416d6f756e74206578636565647320617661696c61626c652062616c616e63657573657220616c726561647920766f746564206f6e20746869732070726f706f73616ca265627a7a7231582030ee86da1689ca5ea47b8ba77b4c86dee5321adf2142b16292c5e683f89d0b0764736f6c63430005100032",
  "source": "// SPDX-License-Identifier: MIT\npragma solidity >=0.4.22 <0.9.0;\n\ncontract Multisig {\n\n  mapping(address => bool) public isOwner;\n  uint approvalLimit;\n\n  struct TransferRequest {\n    uint amount;\n    address payable recipient;\n    uint approvalCount;\n    uint id;\n    bool completed;\n  }\n\n  TransferRequest[] public transferRequests;\n  mapping(address => mapping(uint => bool)) public voted;\n\n  modifier ownersOnly {\n    require(isOwner[msg.sender] == true, \"Not accessible to unauthorized owners\");\n    _;\n  }\n\n  constructor(address _owner1, address _owner2, address _owner3, uint _limit) public {\n    isOwner[_owner1] = true;\n    isOwner[_owner2] = true;\n    isOwner[_owner3] = true;\n    approvalLimit = _limit;\n  }\n\n  // accept public deposits\n  function deposit() public payable {\n    require(msg.value >= 1000);\n  }\n\n  function transferRequest(uint _amount, address payable _recipient) public ownersOnly {\n    require(address(this).balance >= _amount, \"Requested Amount exceeds available balance\");\n    transferRequests.push(TransferRequest(_amount, _recipient, approvalLimit, transferRequests.length, false));\n    approveRequest(transferRequests.length);\n  }\n\n  function approveRequest(uint _id) public {\n    require(voted[msg.sender][_id] == false, \"user already voted on this proposal\");\n    voted[msg.sender][_id] = true;\n    transferRequests[_id].approvalCount ++;\n\n    uint _approvals = transferRequests[_id].approvalCount;\n\n    if(_approvals >= approvalLimit) {\n      uint _prevBalance = address(this).balance;\n      transferRequests[_id].recipient.transfer(transferRequests[_id].amount);\n      assert(address(this).balance == _prevBalance - transferRequests[_id].amount);\n      transferRequests[_id].completed = true;\n      }\n    }\n}\n",
  "sourcePath": "/Users/ibek/WebstormProjects/solidity/multisig/contracts/Multisig.sol",
  "compiler": {
    "name": "solc",
    "version": "0.5.16+commit.9c3226ce.Emscripten.clang"
  },
  "schemaVersion": "3.4.1",
  "updatedAt": "2021-06-13T16:15:56.659Z",
  "networkType": "ethereum",
  "devdoc": {
    "methods": {}
  },
  "userdoc": {
    "methods": {}
  }
}