{
  "contractName": "Multisig",
  "abi": [
    {
      "inputs": [
        {
          "internalType": "uint256",
          "name": "_limit",
          "type": "uint256"
        },
        {
          "internalType": "address[]",
          "name": "members",
          "type": "address[]"
        }
      ],
      "payable": false,
      "stateMutability": "nonpayable",
      "type": "constructor"
    },
    {
      "constant": false,
      "inputs": [
        {
          "internalType": "address",
          "name": "_newmember",
          "type": "address"
        }
      ],
      "name": "addMember",
      "outputs": [],
      "payable": false,
      "stateMutability": "nonpayable",
      "type": "function"
    },
    {
      "constant": false,
      "inputs": [
        {
          "internalType": "address",
          "name": "_oldmember",
          "type": "address"
        }
      ],
      "name": "removeMember",
      "outputs": [],
      "payable": false,
      "stateMutability": "nonpayable",
      "type": "function"
    },
    {
      "constant": false,
      "inputs": [],
      "name": "deposit",
      "outputs": [],
      "payable": true,
      "stateMutability": "payable",
      "type": "function"
    },
    {
      "constant": false,
      "inputs": [
        {
          "internalType": "uint256",
          "name": "_amount",
          "type": "uint256"
        },
        {
          "internalType": "address payable",
          "name": "_recipient",
          "type": "address"
        }
      ],
      "name": "transferRequest",
      "outputs": [],
      "payable": false,
      "stateMutability": "nonpayable",
      "type": "function"
    },
    {
      "constant": false,
      "inputs": [
        {
          "internalType": "uint256",
          "name": "_id",
          "type": "uint256"
        }
      ],
      "name": "approveRequest",
      "outputs": [],
      "payable": false,
      "stateMutability": "nonpayable",
      "type": "function"
    }
  ],
  "bytecode": "0x608060405234801561001057600080fd5b50604051610c04380380610c048339818101604052604081101561003357600080fd5b81019080805190602001909291908051604051939291908464010000000082111561005d57600080fd5b8382019150602082018581111561007357600080fd5b825186602082028301116401000000008211171561009057600080fd5b8083526020830192505050908051906020019060200280838360005b838110156100c75780820151818401526020810190506100ac565b505050509050016040525050508060008090505b81518110156101ec5760008282815181106100f257fe5b602002602001015190506000604051806060016040528084815260200185858151811061011b57fe5b602002602001015173ffffffffffffffffffffffffffffffffffffffff1681526020016000815250908060018154018082558091505090600182039060005260206000209060030201600090919290919091506000820151816000015560208201518160010160006101000a81548173ffffffffffffffffffffffffffffffffffffffff021916908373ffffffffffffffffffffffffffffffffffffffff160217905550604082015181600201555050506002600081548092919060010191905055505080806001019150506100db565b5033600360006101000a81548173ffffffffffffffffffffffffffffffffffffffff021916908373ffffffffffffffffffffffffffffffffffffffff160217905550508160048190555050506109bd806102476000396000f3fe60806040526004361061004a5760003560e01c80630b1ca49a1461004f578063ca6d56dc146100a0578063d0e30db0146100f1578063d7d1bbdb146100fb578063d99a16c514610136575b600080fd5b34801561005b57600080fd5b5061009e6004803603602081101561007257600080fd5b81019080803573ffffffffffffffffffffffffffffffffffffffff169060200190929190505050610191565b005b3480156100ac57600080fd5b506100ef600480360360208110156100c357600080fd5b81019080803573ffffffffffffffffffffffffffffffffffffffff1690602001909291905050506102a5565b005b6100f9610479565b005b34801561010757600080fd5b506101346004803603602081101561011e57600080fd5b810190808035906020019092919050505061047b565b005b34801561014257600080fd5b5061018f6004803603604081101561015957600080fd5b8101908080359060200190929190803573ffffffffffffffffffffffffffffffffffffffff1690602001909291905050506106e5565b005b600360009054906101000a900473ffffffffffffffffffffffffffffffffffffffff1673ffffffffffffffffffffffffffffffffffffffff163373ffffffffffffffffffffffffffffffffffffffff1614610237576040517f08c379a00000000000000000000000000000000000000000000000000000000081526004018080602001828103825260238152602001806108f76023913960400191505060405180910390fd5b6000600160008373ffffffffffffffffffffffffffffffffffffffff1673ffffffffffffffffffffffffffffffffffffffff16815260200190815260200160002060006101000a81548160ff0219169083151502179055506002600081548092919060019003919050555050565b600360009054906101000a900473ffffffffffffffffffffffffffffffffffffffff1673ffffffffffffffffffffffffffffffffffffffff163373ffffffffffffffffffffffffffffffffffffffff161461034b576040517f08c379a00000000000000000000000000000000000000000000000000000000081526004018080602001828103825260238152602001806108f76023913960400191505060405180910390fd5b6000604051806060016040528060008054905081526020018373ffffffffffffffffffffffffffffffffffffffff1681526020016000815250908060018154018082558091505090600182039060005260206000209060030201600090919290919091506000820151816000015560208201518160010160006101000a81548173ffffffffffffffffffffffffffffffffffffffff021916908373ffffffffffffffffffffffffffffffffffffffff1602179055506040820151816002015550505060018060008373ffffffffffffffffffffffffffffffffffffffff1673ffffffffffffffffffffffffffffffffffffffff16815260200190815260200160002060006101000a81548160ff02191690831515021790555060026000815480929190600101919050555050565b565b60011515600160003373ffffffffffffffffffffffffffffffffffffffff1673ffffffffffffffffffffffffffffffffffffffff16815260200190815260200160002060009054906101000a900460ff16151514610524576040517f08c379a000000000000000000000000000000000000000000000000000000000815260040180806020018281038252602281526020018061091a6022913960400191505060405180910390fd5b60001515600660003373ffffffffffffffffffffffffffffffffffffffff1673ffffffffffffffffffffffffffffffffffffffff168152602001908152602001600020600083815260200190815260200160002060009054906101000a900460ff161515146105de576040517f08c379a00000000000000000000000000000000000000000000000000000000081526004018080602001828103825260238152602001806109666023913960400191505060405180910390fd5b6001600660003373ffffffffffffffffffffffffffffffffffffffff1673ffffffffffffffffffffffffffffffffffffffff168152602001908152602001600020600083815260200190815260200160002060006101000a81548160ff0219169083151502179055506005818154811061065457fe5b90600052602060002090600502016002016000815480929190600101919050555060006005828154811061068457fe5b906000526020600020906005020160020154905060045481106106e1576106a96108f4565b6001600583815481106106b857fe5b906000526020600020906005020160040160006101000a81548160ff0219169083151502179055505b5050565b60011515600160003373ffffffffffffffffffffffffffffffffffffffff1673ffffffffffffffffffffffffffffffffffffffff16815260200190815260200160002060009054906101000a900460ff1615151461078e576040517f08c379a000000000000000000000000000000000000000000000000000000000815260040180806020018281038252602281526020018061091a6022913960400191505060405180910390fd5b814710156107e7576040517f08c379a000000000000000000000000000000000000000000000000000000000815260040180806020018281038252602a81526020018061093c602a913960400191505060405180910390fd5b60056040518060a001604052808481526020018373ffffffffffffffffffffffffffffffffffffffff16815260200160008152602001600580549050815260200160001515815250908060018154018082558091505090600182039060005260206000209060050201600090919290919091506000820151816000015560208201518160010160006101000a81548173ffffffffffffffffffffffffffffffffffffffff021916908373ffffffffffffffffffffffffffffffffffffffff160217905550604082015181600201556060820151816003015560808201518160040160006101000a81548160ff0219169083151502179055505050506108f060058054905061047b565b5050565b56fe4e6f742061636365737369626c6520746f206e6f6e2d61646d696e206d656d626572734e6f742061636365737369626c6520746f206e6f6e2d7465616d206d656d6265727352657175657374656420416d6f756e74206578636565647320617661696c61626c652062616c616e63657573657220616c726561647920766f746564206f6e20746869732070726f706f73616ca265627a7a723158204e67ec8ddb7eafe60a4d804e05e43febfa1af18a79d2af30306e8b41c7fa855a64736f6c63430005100032",
  "source": "// SPDX-License-Identifier: MIT\npragma solidity >=0.4.22 <0.9.0;\n\nimport \"./Team.sol\";\n\ncontract Multisig is Team {\n\n  uint approvalLimit;\n\n  struct TransferRequest {\n    uint amount;\n    address payable recipient;\n    uint approvalCount;\n    uint id;\n    bool completed;\n  }\n\n  TransferRequest[] transferRequests;\n  mapping(address => mapping(uint => bool)) voted;\n\n  constructor(uint _limit, address[] memory members) Team(members) public {\n    approvalLimit = _limit;\n  }\n\n  // accept public deposits\n  function deposit() public payable {\n  }\n\n  function transferRequest(uint _amount, address payable _recipient) public teamOnly {\n    require(address(this).balance >= _amount, \"Requested Amount exceeds available balance\");\n    transferRequests.push(TransferRequest(_amount, _recipient, 0, transferRequests.length, false));\n    approveRequest(transferRequests.length);\n  }\n\n  function approveRequest(uint _id) public teamOnly {\n    require(voted[msg.sender][_id] == false, \"user already voted on this proposal\");\n    voted[msg.sender][_id] = true;\n    transferRequests[_id].approvalCount ++;\n    uint _approvals = transferRequests[_id].approvalCount;\n    if(_approvals >= approvalLimit) {\n      payTeam();\n      transferRequests[_id].completed = true;\n    }\n  }\n\n  function payTeam() private {\n    //\n  }\n}\n",
  "sourcePath": "/Users/esengulov/WebstormProjects/HS-DAO/multisig/contracts/Multisig.sol",
  "compiler": {
    "name": "solc",
    "version": "0.5.16+commit.9c3226ce.Emscripten.clang"
  },
  "schemaVersion": "3.4.1",
  "updatedAt": "2021-06-23T07:15:19.856Z",
  "networkType": "ethereum",
  "devdoc": {
    "methods": {}
  },
  "userdoc": {
    "methods": {}
  }
}