{
  "contractName": "Multisig",
  "abi": [
    {
      "inputs": [
        {
          "internalType": "address",
          "name": "_owner1",
          "type": "address"
        },
        {
          "internalType": "address",
          "name": "_owner2",
          "type": "address"
        },
        {
          "internalType": "address",
          "name": "_owner3",
          "type": "address"
        },
        {
          "internalType": "uint256",
          "name": "_limit",
          "type": "uint256"
        }
      ],
      "payable": false,
      "stateMutability": "nonpayable",
      "type": "constructor"
    },
    {
      "constant": true,
      "inputs": [],
      "name": "approvalCount",
      "outputs": [
        {
          "internalType": "uint256",
          "name": "",
          "type": "uint256"
        }
      ],
      "payable": false,
      "stateMutability": "view",
      "type": "function"
    },
    {
      "constant": true,
      "inputs": [],
      "name": "approvalLimit",
      "outputs": [
        {
          "internalType": "uint256",
          "name": "",
          "type": "uint256"
        }
      ],
      "payable": false,
      "stateMutability": "view",
      "type": "function"
    },
    {
      "constant": true,
      "inputs": [
        {
          "internalType": "address",
          "name": "",
          "type": "address"
        }
      ],
      "name": "isOwner",
      "outputs": [
        {
          "internalType": "bool",
          "name": "",
          "type": "bool"
        }
      ],
      "payable": false,
      "stateMutability": "view",
      "type": "function"
    },
    {
      "constant": true,
      "inputs": [
        {
          "internalType": "uint256",
          "name": "",
          "type": "uint256"
        }
      ],
      "name": "owners",
      "outputs": [
        {
          "internalType": "address",
          "name": "",
          "type": "address"
        }
      ],
      "payable": false,
      "stateMutability": "view",
      "type": "function"
    },
    {
      "constant": true,
      "inputs": [],
      "name": "voteInProgress",
      "outputs": [
        {
          "internalType": "bool",
          "name": "",
          "type": "bool"
        }
      ],
      "payable": false,
      "stateMutability": "view",
      "type": "function"
    },
    {
      "constant": true,
      "inputs": [
        {
          "internalType": "address",
          "name": "",
          "type": "address"
        }
      ],
      "name": "voted",
      "outputs": [
        {
          "internalType": "bool",
          "name": "",
          "type": "bool"
        }
      ],
      "payable": false,
      "stateMutability": "view",
      "type": "function"
    },
    {
      "constant": false,
      "inputs": [],
      "name": "deposit",
      "outputs": [],
      "payable": true,
      "stateMutability": "payable",
      "type": "function"
    },
    {
      "constant": false,
      "inputs": [
        {
          "internalType": "uint256",
          "name": "_amount",
          "type": "uint256"
        },
        {
          "internalType": "address payable",
          "name": "_recipient",
          "type": "address"
        }
      ],
      "name": "transferRequest",
      "outputs": [],
      "payable": false,
      "stateMutability": "nonpayable",
      "type": "function"
    }
  ],
  "bytecode": "0x608060405234801561001057600080fd5b50604051610b85380380610b858339818101604052608081101561003357600080fd5b810190808051906020019092919080519060200190929190805190602001909291908051906020019092919050505060008490806001815401808255809150509060018203906000526020600020016000909192909190916101000a81548173ffffffffffffffffffffffffffffffffffffffff021916908373ffffffffffffffffffffffffffffffffffffffff1602179055505060008390806001815401808255809150509060018203906000526020600020016000909192909190916101000a81548173ffffffffffffffffffffffffffffffffffffffff021916908373ffffffffffffffffffffffffffffffffffffffff1602179055505060008290806001815401808255809150509060018203906000526020600020016000909192909190916101000a81548173ffffffffffffffffffffffffffffffffffffffff021916908373ffffffffffffffffffffffffffffffffffffffff1602179055505060018060008673ffffffffffffffffffffffffffffffffffffffff1673ffffffffffffffffffffffffffffffffffffffff16815260200190815260200160002060006101000a81548160ff02191690831515021790555060018060008573ffffffffffffffffffffffffffffffffffffffff1673ffffffffffffffffffffffffffffffffffffffff16815260200190815260200160002060006101000a81548160ff02191690831515021790555060018060008473ffffffffffffffffffffffffffffffffffffffff1673ffffffffffffffffffffffffffffffffffffffff16815260200190815260200160002060006101000a81548160ff0219169083151502179055508060048190555060006003819055506000600560006101000a81548160ff021916908315150217905550505050506108af806102d66000396000f3fe60806040526004361061007b5760003560e01c8063aec2ccae1161004e578063aec2ccae146101ba578063d0e30db014610223578063d99a16c51461022d578063e2c19c23146102885761007b565b8063025e7c27146100805780632f54bf6e146100fb5780635db6a97d146101645780636884d0a61461018f575b600080fd5b34801561008c57600080fd5b506100b9600480360360208110156100a357600080fd5b81019080803590602001909291905050506102b7565b604051808273ffffffffffffffffffffffffffffffffffffffff1673ffffffffffffffffffffffffffffffffffffffff16815260200191505060405180910390f35b34801561010757600080fd5b5061014a6004803603602081101561011e57600080fd5b81019080803573ffffffffffffffffffffffffffffffffffffffff1690602001909291905050506102f3565b604051808215151515815260200191505060405180910390f35b34801561017057600080fd5b50610179610313565b6040518082815260200191505060405180910390f35b34801561019b57600080fd5b506101a4610319565b6040518082815260200191505060405180910390f35b3480156101c657600080fd5b50610209600480360360208110156101dd57600080fd5b81019080803573ffffffffffffffffffffffffffffffffffffffff16906020019092919050505061031f565b604051808215151515815260200191505060405180910390f35b61022b61033f565b005b34801561023957600080fd5b506102866004803603604081101561025057600080fd5b8101908080359060200190929190803573ffffffffffffffffffffffffffffffffffffffff169060200190929190505050610350565b005b34801561029457600080fd5b5061029d61054a565b604051808215151515815260200191505060405180910390f35b600081815481106102c457fe5b906000526020600020016000915054906101000a900473ffffffffffffffffffffffffffffffffffffffff1681565b60016020528060005260406000206000915054906101000a900460ff1681565b60045481565b60035481565b60026020528060005260406000206000915054906101000a900460ff1681565b6103e834101561034e57600080fd5b565b60011515600160003373ffffffffffffffffffffffffffffffffffffffff1673ffffffffffffffffffffffffffffffffffffffff16815260200190815260200160002060009054906101000a900460ff161515146103f9576040517f08c379a00000000000000000000000000000000000000000000000000000000081526004018080602001828103825260258152602001806108356025913960400191505060405180910390fd5b81471015610452576040517f08c379a000000000000000000000000000000000000000000000000000000000815260040180806020018281038252602181526020018061085a6021913960400191505060405180910390fd5b60001515600560009054906101000a900460ff161515146104db576040517f08c379a00000000000000000000000000000000000000000000000000000000081526004018080602001828103825260198152602001807f74686572652069732070656e64696e672070726f706f73616c0000000000000081525060200191505060405180910390fd5b8160068190555080600760006101000a81548173ffffffffffffffffffffffffffffffffffffffff021916908373ffffffffffffffffffffffffffffffffffffffff1602179055506001600560006101000a81548160ff02191690831515021790555061054661055d565b5050565b600560009054906101000a900460ff1681565b60001515600260003373ffffffffffffffffffffffffffffffffffffffff1673ffffffffffffffffffffffffffffffffffffffff16815260200190815260200160002060009054906101000a900460ff16151514610623576040517f08c379a00000000000000000000000000000000000000000000000000000000081526004018080602001828103825260138152602001807f6f776e657220616c726561647920766f7465640000000000000000000000000081525060200191505060405180910390fd5b6001600260003373ffffffffffffffffffffffffffffffffffffffff1673ffffffffffffffffffffffffffffffffffffffff16815260200190815260200160002060006101000a81548160ff021916908315150217905550600360008154809291906001019190505550600454600354106108325760006003819055506000600560006101000a81548160ff02191690831515021790555060008090505b6000805490508111610768576000600260008084815481106106df57fe5b9060005260206000200160009054906101000a900473ffffffffffffffffffffffffffffffffffffffff1673ffffffffffffffffffffffffffffffffffffffff1673ffffffffffffffffffffffffffffffffffffffff16815260200190815260200160002060006101000a81548160ff02191690831515021790555080806001019150506106c1565b506000479050600760009054906101000a900473ffffffffffffffffffffffffffffffffffffffff1673ffffffffffffffffffffffffffffffffffffffff166108fc6006549081150290604051600060405180830381858888f193505050501580156107d8573d6000803e3d6000fd5b50600654810347146107e657fe5b60006006819055506000600760006101000a81548173ffffffffffffffffffffffffffffffffffffffff021916908373ffffffffffffffffffffffffffffffffffffffff160217905550505b56fe4e6f742061636365737369626c6520746f20756e617574686f72697a6564206f776e657273416d6f756e74206578636565647320636f6e747261637427732062616c616e6365a265627a7a723158208cc497ebf65487c4bd91d62c0d93839581f109184d4e2bc7edbe623f2f5d970564736f6c63430005100032",
  "source": "// SPDX-License-Identifier: MIT\npragma solidity >=0.4.22 <0.9.0;\n\ncontract Multisig {\n\n  address[] public owners;\n  mapping(address => bool) public isOwner;\n  mapping(address => bool) public voted;\n  uint public approvalCount;\n  uint public approvalLimit;\n  bool public voteInProgress;\n\n  uint amount;\n  address payable recipient;\n\n  modifier ownersOnly {\n    require(isOwner[msg.sender] == true, \"Not accessible to unauthorized owners\");\n    _;\n  }\n\n  constructor(address _owner1, address _owner2, address _owner3, uint _limit) public {\n    owners.push(_owner1);\n    owners.push(_owner2);\n    owners.push(_owner3);\n    isOwner[_owner1] = true;\n    isOwner[_owner2] = true;\n    isOwner[_owner3] = true;\n\n    approvalLimit = _limit;\n    approvalCount = 0;\n    voteInProgress = false;\n  }\n\n  // accept public deposits\n  function deposit() public payable {\n    require(msg.value >= 1000);\n  }\n\n  function transferRequest(uint _amount, address payable _recipient) public ownersOnly {\n    require(address(this).balance >= _amount, \"Amount exceeds contract's balance\");\n    require(voteInProgress == false, \"there is pending proposal\");\n\n    amount = _amount;\n    recipient = _recipient;\n    voteInProgress = true;\n\n    _approve();\n  }\n\n  function _approve() private {\n    require(voted[msg.sender] == false, \"owner already voted\");\n    voted[msg.sender] = true;\n    approvalCount ++;\n\n    if(approvalCount >= approvalLimit) {\n      // reset everything\n      approvalCount = 0;\n      voteInProgress = false;\n      for(uint i = 0; i <= owners.length; i++){\n        voted[owners[i]] = false;\n      }\n\n      // approve withdraw\n      uint _prevBalance = address(this).balance;\n      recipient.transfer(amount);\n      assert(address(this).balance == _prevBalance - amount);\n      // reset recipient and amount\n      amount = 0;\n      recipient = address(0);\n    }\n  }\n}\n",
  "sourcePath": "/Users/ibek/WebstormProjects/solidity/multisig/contracts/Multisig.sol",
  "compiler": {
    "name": "solc",
    "version": "0.5.16+commit.9c3226ce.Emscripten.clang"
  },
  "schemaVersion": "3.4.1",
  "updatedAt": "2021-06-13T13:43:41.335Z",
  "networkType": "ethereum",
  "devdoc": {
    "methods": {}
  },
  "userdoc": {
    "methods": {}
  }
}