{
  "contractName": "Team",
  "abi": [
    {
      "inputs": [
        {
          "internalType": "address[]",
          "name": "_members",
          "type": "address[]"
        }
      ],
      "payable": false,
      "stateMutability": "nonpayable",
      "type": "constructor"
    },
    {
      "constant": false,
      "inputs": [
        {
          "internalType": "address",
          "name": "_newmember",
          "type": "address"
        }
      ],
      "name": "addMember",
      "outputs": [],
      "payable": false,
      "stateMutability": "nonpayable",
      "type": "function"
    },
    {
      "constant": false,
      "inputs": [
        {
          "internalType": "address",
          "name": "_oldmember",
          "type": "address"
        }
      ],
      "name": "removeMember",
      "outputs": [],
      "payable": false,
      "stateMutability": "nonpayable",
      "type": "function"
    }
  ],
  "bytecode": "0x608060405234801561001057600080fd5b506040516106363803806106368339818101604052602081101561003357600080fd5b810190808051604051939291908464010000000082111561005357600080fd5b8382019150602082018581111561006957600080fd5b825186602082028301116401000000008211171561008657600080fd5b8083526020830192505050908051906020019060200280838360005b838110156100bd5780820151818401526020810190506100a2565b5050505090500160405250505060008090505b81518110156101e15760008282815181106100e757fe5b602002602001015190506000604051806060016040528084815260200185858151811061011057fe5b602002602001015173ffffffffffffffffffffffffffffffffffffffff1681526020016000815250908060018154018082558091505090600182039060005260206000209060030201600090919290919091506000820151816000015560208201518160010160006101000a81548173ffffffffffffffffffffffffffffffffffffffff021916908373ffffffffffffffffffffffffffffffffffffffff160217905550604082015181600201555050506002600081548092919060010191905055505080806001019150506100d0565b5033600360006101000a81548173ffffffffffffffffffffffffffffffffffffffff021916908373ffffffffffffffffffffffffffffffffffffffff16021790555050610403806102336000396000f3fe608060405234801561001057600080fd5b50600436106100365760003560e01c80630b1ca49a1461003b578063ca6d56dc1461007f575b600080fd5b61007d6004803603602081101561005157600080fd5b81019080803573ffffffffffffffffffffffffffffffffffffffff1690602001909291905050506100c3565b005b6100c16004803603602081101561009557600080fd5b81019080803573ffffffffffffffffffffffffffffffffffffffff1690602001909291905050506101d7565b005b600360009054906101000a900473ffffffffffffffffffffffffffffffffffffffff1673ffffffffffffffffffffffffffffffffffffffff163373ffffffffffffffffffffffffffffffffffffffff1614610169576040517f08c379a00000000000000000000000000000000000000000000000000000000081526004018080602001828103825260238152602001806103ac6023913960400191505060405180910390fd5b6000600160008373ffffffffffffffffffffffffffffffffffffffff1673ffffffffffffffffffffffffffffffffffffffff16815260200190815260200160002060006101000a81548160ff0219169083151502179055506002600081548092919060019003919050555050565b600360009054906101000a900473ffffffffffffffffffffffffffffffffffffffff1673ffffffffffffffffffffffffffffffffffffffff163373ffffffffffffffffffffffffffffffffffffffff161461027d576040517f08c379a00000000000000000000000000000000000000000000000000000000081526004018080602001828103825260238152602001806103ac6023913960400191505060405180910390fd5b6000604051806060016040528060008054905081526020018373ffffffffffffffffffffffffffffffffffffffff1681526020016000815250908060018154018082558091505090600182039060005260206000209060030201600090919290919091506000820151816000015560208201518160010160006101000a81548173ffffffffffffffffffffffffffffffffffffffff021916908373ffffffffffffffffffffffffffffffffffffffff1602179055506040820151816002015550505060018060008373ffffffffffffffffffffffffffffffffffffffff1673ffffffffffffffffffffffffffffffffffffffff16815260200190815260200160002060006101000a81548160ff0219169083151502179055506002600081548092919060010191905055505056fe4e6f742061636365737369626c6520746f206e6f6e2d61646d696e206d656d62657273a265627a7a723158201680e413b6d4290deb76ad354797b1cd5b61875421e1202e57d816524aa534b464736f6c63430005100032",
  "source": "// SPDX-License-Identifier: MIT\npragma solidity >=0.4.22 <0.9.0;\n\ncontract Team {\n\n  struct Member {\n    uint id;\n    address wallet;\n    uint allowance;\n  }\n\n  Member[] members;\n  mapping(address => bool) isTeamMember;\n  uint activeMembers;\n  address admin;\n\n\n\n  modifier teamOnly {\n    require(isTeamMember[msg.sender] == true, \"Not accessible to non-team members\");\n    _;\n  }\n\n  modifier adminOnly {\n    require(msg.sender == admin, \"Not accessible to non-admin members\");\n    _;\n  }\n\n  constructor(address[] memory _members) public {\n    for(uint i = 0; i < _members.length; i++) {\n      address wallet = _members[i];\n      members.push(Member(i, _members[i], 0));\n      activeMembers ++;\n    }\n    admin = msg.sender;\n  }\n\n  function addMember(address _newmember) public adminOnly {\n    members.push(Member(members.length, _newmember, 0));\n    isTeamMember[_newmember] = true;\n    activeMembers ++;\n  }\n\n  function removeMember(address _oldmember) public adminOnly {\n    isTeamMember[_oldmember] = false;\n    activeMembers --;\n  }\n}",
  "sourcePath": "/Users/ibek/WebstormProjects/solidity/multisig/contracts/Team.sol",
  "compiler": {
    "name": "solc",
    "version": "0.5.16+commit.9c3226ce.Emscripten.clang"
  },
  "schemaVersion": "3.4.1",
  "updatedAt": "2021-06-22T19:01:43.125Z",
  "devdoc": {
    "methods": {}
  },
  "userdoc": {
    "methods": {}
  }
}