{
  "contractName": "Team",
  "abi": [
    {
      "inputs": [
        {
          "internalType": "address[]",
          "name": "_members",
          "type": "address[]"
        }
      ],
      "stateMutability": "nonpayable",
      "type": "constructor"
    },
    {
      "inputs": [],
      "name": "memberCount",
      "outputs": [
        {
          "internalType": "uint256",
          "name": "",
          "type": "uint256"
        }
      ],
      "stateMutability": "view",
      "type": "function"
    },
    {
      "inputs": [
        {
          "internalType": "uint256",
          "name": "",
          "type": "uint256"
        }
      ],
      "name": "members",
      "outputs": [
        {
          "internalType": "uint256",
          "name": "id",
          "type": "uint256"
        },
        {
          "internalType": "address",
          "name": "wallet",
          "type": "address"
        },
        {
          "internalType": "uint256",
          "name": "allowance",
          "type": "uint256"
        }
      ],
      "stateMutability": "view",
      "type": "function"
    },
    {
      "inputs": [
        {
          "internalType": "address",
          "name": "_new",
          "type": "address"
        }
      ],
      "name": "addMember",
      "outputs": [],
      "stateMutability": "nonpayable",
      "type": "function"
    },
    {
      "inputs": [
        {
          "internalType": "address",
          "name": "_old",
          "type": "address"
        }
      ],
      "name": "removeMember",
      "outputs": [],
      "stateMutability": "nonpayable",
      "type": "function"
    }
  ],
  "bytecode": "0x60806040523480156200001157600080fd5b5060405162000bd638038062000bd6833981810160405281019062000037919062000358565b600060028190555060005b81518110156200025657600082828151811062000088577f4e487b7100000000000000000000000000000000000000000000000000000000600052603260045260246000fd5b6020026020010151905060006040518060600160405280848152602001858581518110620000df577f4e487b7100000000000000000000000000000000000000000000000000000000600052603260045260246000fd5b602002602001015173ffffffffffffffffffffffffffffffffffffffff168152602001600081525090806001815401808255809150506001900390600052602060002090600302016000909190919091506000820151816000015560208201518160010160006101000a81548173ffffffffffffffffffffffffffffffffffffffff021916908373ffffffffffffffffffffffffffffffffffffffff1602179055506040820151816002015550506001806000858581518110620001cc577f4e487b7100000000000000000000000000000000000000000000000000000000600052603260045260246000fd5b602002602001015173ffffffffffffffffffffffffffffffffffffffff1673ffffffffffffffffffffffffffffffffffffffff16815260200190815260200160002060006101000a81548160ff021916908315150217905550600260008154809291906200023a906200043e565b91905055505080806200024d906200043e565b91505062000042565b5033600360006101000a81548173ffffffffffffffffffffffffffffffffffffffff021916908373ffffffffffffffffffffffffffffffffffffffff1602179055505062000504565b6000620002b6620002b084620003d1565b6200039d565b90508083825260208201905082856020860282011115620002d657600080fd5b60005b858110156200030a5781620002ef888262000314565b845260208401935060208301925050600181019050620002d9565b5050509392505050565b6000815190506200032581620004ea565b92915050565b600082601f8301126200033d57600080fd5b81516200034f8482602086016200029f565b91505092915050565b6000602082840312156200036b57600080fd5b600082015167ffffffffffffffff8111156200038657600080fd5b62000394848285016200032b565b91505092915050565b6000604051905081810181811067ffffffffffffffff82111715620003c757620003c6620004bb565b5b8060405250919050565b600067ffffffffffffffff821115620003ef57620003ee620004bb565b5b602082029050602081019050919050565b60006200040d8262000414565b9050919050565b600073ffffffffffffffffffffffffffffffffffffffff82169050919050565b6000819050919050565b60006200044b8262000434565b91507fffffffffffffffffffffffffffffffffffffffffffffffffffffffffffffffff8214156200048157620004806200048c565b5b600182019050919050565b7f4e487b7100000000000000000000000000000000000000000000000000000000600052601160045260246000fd5b7f4e487b7100000000000000000000000000000000000000000000000000000000600052604160045260246000fd5b620004f58162000400565b81146200050157600080fd5b50565b6106c280620005146000396000f3fe608060405234801561001057600080fd5b506004361061004c5760003560e01c80630b1ca49a1461005157806311aee3801461006d5780635daf08ca1461008b578063ca6d56dc146100bd575b600080fd5b61006b60048036038101906100669190610427565b6100d9565b005b6100756101dc565b604051610082919061051d565b60405180910390f35b6100a560048036038101906100a09190610450565b6101e2565b6040516100b493929190610538565b60405180910390f35b6100d760048036038101906100d29190610427565b61023c565b005b600360009054906101000a900473ffffffffffffffffffffffffffffffffffffffff1673ffffffffffffffffffffffffffffffffffffffff163373ffffffffffffffffffffffffffffffffffffffff1614610169576040517f08c379a0000000000000000000000000000000000000000000000000000000008152600401610160906104fd565b60405180910390fd5b6000600160008373ffffffffffffffffffffffffffffffffffffffff1673ffffffffffffffffffffffffffffffffffffffff16815260200190815260200160002060006101000a81548160ff021916908315150217905550600260008154809291906101d4906105bc565b919050555050565b60025481565b600081815481106101f257600080fd5b90600052602060002090600302016000915090508060000154908060010160009054906101000a900473ffffffffffffffffffffffffffffffffffffffff16908060020154905083565b600360009054906101000a900473ffffffffffffffffffffffffffffffffffffffff1673ffffffffffffffffffffffffffffffffffffffff163373ffffffffffffffffffffffffffffffffffffffff16146102cc576040517f08c379a00000000000000000000000000000000000000000000000000000000081526004016102c3906104fd565b60405180910390fd5b6000604051806060016040528060008054905081526020018373ffffffffffffffffffffffffffffffffffffffff168152602001600081525090806001815401808255809150506001900390600052602060002090600302016000909190919091506000820151816000015560208201518160010160006101000a81548173ffffffffffffffffffffffffffffffffffffffff021916908373ffffffffffffffffffffffffffffffffffffffff16021790555060408201518160020155505060018060008373ffffffffffffffffffffffffffffffffffffffff1673ffffffffffffffffffffffffffffffffffffffff16815260200190815260200160002060006101000a81548160ff021916908315150217905550600260008154809291906103f5906105e6565b919050555050565b60008135905061040c8161065e565b92915050565b60008135905061042181610675565b92915050565b60006020828403121561043957600080fd5b6000610447848285016103fd565b91505092915050565b60006020828403121561046257600080fd5b600061047084828501610412565b91505092915050565b61048281610580565b82525050565b600061049560238361056f565b91507f4e6f742061636365737369626c6520746f206e6f6e2d61646d696e206d656d6260008301527f65727300000000000000000000000000000000000000000000000000000000006020830152604082019050919050565b6104f7816105b2565b82525050565b6000602082019050818103600083015261051681610488565b9050919050565b600060208201905061053260008301846104ee565b92915050565b600060608201905061054d60008301866104ee565b61055a6020830185610479565b61056760408301846104ee565b949350505050565b600082825260208201905092915050565b600061058b82610592565b9050919050565b600073ffffffffffffffffffffffffffffffffffffffff82169050919050565b6000819050919050565b60006105c7826105b2565b915060008214156105db576105da61062f565b5b600182039050919050565b60006105f1826105b2565b91507fffffffffffffffffffffffffffffffffffffffffffffffffffffffffffffffff8214156106245761062361062f565b5b600182019050919050565b7f4e487b7100000000000000000000000000000000000000000000000000000000600052601160045260246000fd5b61066781610580565b811461067257600080fd5b50565b61067e816105b2565b811461068957600080fd5b5056fea26469706673582212204c5f611378333887069f484626ba34f4c351534b21e8510967e38158699a168464736f6c63430008000033",
  "immutableReferences": {},
  "source": "// SPDX-License-Identifier: MIT\npragma solidity >=0.8.0 <0.9.0;\n\ncontract Team {\n\n  struct Member {\n    uint id;\n    address wallet;\n    uint256 allowance;\n  }\n\n  Member[] public members;\n  mapping(address => bool) isActiveMember;\n  uint256 public memberCount;\n\n  address admin;\n\n  modifier teamOnly {\n    require(isActiveMember[msg.sender] == true, \"Not accessible to non-team members\");\n    _;\n  }\n\n  modifier adminOnly {\n    require(msg.sender == admin, \"Not accessible to non-admin members\");\n    _;\n  }\n\n  constructor(address[] memory _members) public {\n    memberCount = 0;\n    for(uint i = 0; i < _members.length; i++) {\n      address wallet = _members[i];\n      members.push(Member(i, _members[i], 0));\n      isActiveMember[_members[i]] = true;\n      memberCount ++;\n    }\n    admin = msg.sender;\n  }\n\n  function addMember(address _new) public adminOnly {\n    members.push(Member(members.length, _new, 0));\n    isActiveMember[_new] = true;\n    memberCount ++;\n  }\n\n  function removeMember(address _old) public adminOnly {\n    isActiveMember[_old] = false;\n    memberCount --;\n  }\n\n}\n",
  "sourcePath": "/Users/esengulov/WebstormProjects/HS-DAO/multisig/contracts/Team.sol",
  "compiler": {
    "name": "solc",
    "version": "0.8.0+commit.c7dfd78e.Emscripten.clang"
  },
  "schemaVersion": "3.4.1",
  "updatedAt": "2021-07-15T12:59:48.605Z",
  "devdoc": {
    "kind": "dev",
    "methods": {},
    "version": 1
  },
  "userdoc": {
    "kind": "user",
    "methods": {},
    "version": 1
  }
}