{
  "contractName": "Team",
  "abi": [
    {
      "inputs": [
        {
          "internalType": "address[]",
          "name": "_members",
          "type": "address[]"
        }
      ],
      "stateMutability": "nonpayable",
      "type": "constructor"
    },
    {
      "inputs": [
        {
          "internalType": "address",
          "name": "_new",
          "type": "address"
        }
      ],
      "name": "addMember",
      "outputs": [],
      "stateMutability": "nonpayable",
      "type": "function"
    },
    {
      "inputs": [
        {
          "internalType": "address",
          "name": "_old",
          "type": "address"
        }
      ],
      "name": "removeMember",
      "outputs": [],
      "stateMutability": "nonpayable",
      "type": "function"
    }
  ],
  "bytecode": "0x608060405234801561001057600080fd5b5060405161097a38038061097a8339818101604052810190610032919061029c565b60005b81518110156101a9576000828281518110610079577f4e487b7100000000000000000000000000000000000000000000000000000000600052603260045260246000fd5b60200260200101519050600060405180606001604052808481526020018585815181106100cf577f4e487b7100000000000000000000000000000000000000000000000000000000600052603260045260246000fd5b602002602001015173ffffffffffffffffffffffffffffffffffffffff168152602001600081525090806001815401808255809150506001900390600052602060002090600302016000909190919091506000820151816000015560208201518160010160006101000a81548173ffffffffffffffffffffffffffffffffffffffff021916908373ffffffffffffffffffffffffffffffffffffffff1602179055506040820151816002015550506002600081548092919061019090610376565b91905055505080806101a190610376565b915050610035565b5033600360006101000a81548173ffffffffffffffffffffffffffffffffffffffff021916908373ffffffffffffffffffffffffffffffffffffffff16021790555050610434565b60006102046101ff8461030e565b6102dd565b9050808382526020820190508285602086028201111561022357600080fd5b60005b858110156102535781610239888261025d565b845260208401935060208301925050600181019050610226565b5050509392505050565b60008151905061026c8161041d565b92915050565b600082601f83011261028357600080fd5b81516102938482602086016101f1565b91505092915050565b6000602082840312156102ae57600080fd5b600082015167ffffffffffffffff8111156102c857600080fd5b6102d484828501610272565b91505092915050565b6000604051905081810181811067ffffffffffffffff82111715610304576103036103ee565b5b8060405250919050565b600067ffffffffffffffff821115610329576103286103ee565b5b602082029050602081019050919050565b60006103458261034c565b9050919050565b600073ffffffffffffffffffffffffffffffffffffffff82169050919050565b6000819050919050565b60006103818261036c565b91507fffffffffffffffffffffffffffffffffffffffffffffffffffffffffffffffff8214156103b4576103b36103bf565b5b600182019050919050565b7f4e487b7100000000000000000000000000000000000000000000000000000000600052601160045260246000fd5b7f4e487b7100000000000000000000000000000000000000000000000000000000600052604160045260246000fd5b6104268161033a565b811461043157600080fd5b50565b610537806104436000396000f3fe608060405234801561001057600080fd5b50600436106100365760003560e01c80630b1ca49a1461003b578063ca6d56dc14610057575b600080fd5b6100556004803603810190610050919061034c565b610073565b005b610071600480360381019061006c919061034c565b610176565b005b600360009054906101000a900473ffffffffffffffffffffffffffffffffffffffff1673ffffffffffffffffffffffffffffffffffffffff163373ffffffffffffffffffffffffffffffffffffffff1614610103576040517f08c379a00000000000000000000000000000000000000000000000000000000081526004016100fa906103db565b60405180910390fd5b6000600160008373ffffffffffffffffffffffffffffffffffffffff1673ffffffffffffffffffffffffffffffffffffffff16815260200190815260200160002060006101000a81548160ff0219169083151502179055506002600081548092919061016e90610448565b919050555050565b600360009054906101000a900473ffffffffffffffffffffffffffffffffffffffff1673ffffffffffffffffffffffffffffffffffffffff163373ffffffffffffffffffffffffffffffffffffffff1614610206576040517f08c379a00000000000000000000000000000000000000000000000000000000081526004016101fd906103db565b60405180910390fd5b6000604051806060016040528060008054905081526020018373ffffffffffffffffffffffffffffffffffffffff168152602001600081525090806001815401808255809150506001900390600052602060002090600302016000909190919091506000820151816000015560208201518160010160006101000a81548173ffffffffffffffffffffffffffffffffffffffff021916908373ffffffffffffffffffffffffffffffffffffffff16021790555060408201518160020155505060018060008373ffffffffffffffffffffffffffffffffffffffff1673ffffffffffffffffffffffffffffffffffffffff16815260200190815260200160002060006101000a81548160ff0219169083151502179055506002600081548092919061032f90610472565b919050555050565b600081359050610346816104ea565b92915050565b60006020828403121561035e57600080fd5b600061036c84828501610337565b91505092915050565b60006103826023836103fb565b91507f4e6f742061636365737369626c6520746f206e6f6e2d61646d696e206d656d6260008301527f65727300000000000000000000000000000000000000000000000000000000006020830152604082019050919050565b600060208201905081810360008301526103f481610375565b9050919050565b600082825260208201905092915050565b60006104178261041e565b9050919050565b600073ffffffffffffffffffffffffffffffffffffffff82169050919050565b6000819050919050565b60006104538261043e565b91506000821415610467576104666104bb565b5b600182039050919050565b600061047d8261043e565b91507fffffffffffffffffffffffffffffffffffffffffffffffffffffffffffffffff8214156104b0576104af6104bb565b5b600182019050919050565b7f4e487b7100000000000000000000000000000000000000000000000000000000600052601160045260246000fd5b6104f38161040c565b81146104fe57600080fd5b5056fea2646970667358221220a1ee71e8176322597af9c9306662c6de077bd4f700356eade5da8023759c34a864736f6c63430008000033",
  "immutableReferences": {},
  "source": "// SPDX-License-Identifier: MIT\npragma solidity >=0.8.0 <0.9.0;\n\ncontract Team {\n\n  struct Member {\n    uint id;\n    address wallet;\n    uint256 allowance;\n  }\n\n  Member[] members;\n  mapping(address => bool) isActiveMember;\n  uint256 memberCount;\n\n  address admin;\n\n  modifier teamOnly {\n    require(isActiveMember[msg.sender] == true, \"Not accessible to non-team members\");\n    _;\n  }\n\n  modifier adminOnly {\n    require(msg.sender == admin, \"Not accessible to non-admin members\");\n    _;\n  }\n\n  constructor(address[] memory _members) public {\n    for(uint i = 0; i < _members.length; i++) {\n      address wallet = _members[i];\n      members.push(Member(i, _members[i], 0));\n      memberCount ++;\n    }\n    admin = msg.sender;\n  }\n\n  function addMember(address _new) public adminOnly {\n    members.push(Member(members.length, _new, 0));\n    isActiveMember[_new] = true;\n    memberCount ++;\n  }\n\n  function removeMember(address _old) public adminOnly {\n    isActiveMember[_old] = false;\n    memberCount --;\n  }\n}\n",
  "sourcePath": "/Users/esengulov/WebstormProjects/HS-DAO/multisig/contracts/Team.sol",
  "compiler": {
    "name": "solc",
    "version": "0.8.0+commit.c7dfd78e.Emscripten.clang"
  },
  "schemaVersion": "3.4.1",
  "updatedAt": "2021-06-23T09:11:28.641Z",
  "devdoc": {
    "kind": "dev",
    "methods": {},
    "version": 1
  },
  "userdoc": {
    "kind": "user",
    "methods": {},
    "version": 1
  }
}