{
  "contractName": "Team",
  "abi": [
    {
      "inputs": [
        {
          "internalType": "address[]",
          "name": "_members",
          "type": "address[]"
        }
      ],
      "stateMutability": "nonpayable",
      "type": "constructor"
    },
    {
      "inputs": [],
      "name": "memberCount",
      "outputs": [
        {
          "internalType": "uint256",
          "name": "",
          "type": "uint256"
        }
      ],
      "stateMutability": "view",
      "type": "function"
    },
    {
      "inputs": [
        {
          "internalType": "address",
          "name": "_new",
          "type": "address"
        }
      ],
      "name": "addMember",
      "outputs": [],
      "stateMutability": "nonpayable",
      "type": "function"
    },
    {
      "inputs": [
        {
          "internalType": "address",
          "name": "_old",
          "type": "address"
        }
      ],
      "name": "removeMember",
      "outputs": [],
      "stateMutability": "nonpayable",
      "type": "function"
    },
    {
      "inputs": [],
      "name": "getMemberCount",
      "outputs": [
        {
          "internalType": "uint256",
          "name": "",
          "type": "uint256"
        }
      ],
      "stateMutability": "nonpayable",
      "type": "function"
    }
  ],
  "bytecode": "0x60806040523480156200001157600080fd5b5060405162000a3f38038062000a3f8339818101604052810190620000379190620002c0565b600060028190555060005b8151811015620001be57600082828151811062000088577f4e487b7100000000000000000000000000000000000000000000000000000000600052603260045260246000fd5b6020026020010151905060006040518060600160405280848152602001858581518110620000df577f4e487b7100000000000000000000000000000000000000000000000000000000600052603260045260246000fd5b602002602001015173ffffffffffffffffffffffffffffffffffffffff168152602001600081525090806001815401808255809150506001900390600052602060002090600302016000909190919091506000820151816000015560208201518160010160006101000a81548173ffffffffffffffffffffffffffffffffffffffff021916908373ffffffffffffffffffffffffffffffffffffffff16021790555060408201518160020155505060026000815480929190620001a290620003a6565b9190505550508080620001b590620003a6565b91505062000042565b5033600360006101000a81548173ffffffffffffffffffffffffffffffffffffffff021916908373ffffffffffffffffffffffffffffffffffffffff160217905550506200046c565b60006200021e620002188462000339565b62000305565b905080838252602082019050828560208602820111156200023e57600080fd5b60005b858110156200027257816200025788826200027c565b84526020840193506020830192505060018101905062000241565b5050509392505050565b6000815190506200028d8162000452565b92915050565b600082601f830112620002a557600080fd5b8151620002b784826020860162000207565b91505092915050565b600060208284031215620002d357600080fd5b600082015167ffffffffffffffff811115620002ee57600080fd5b620002fc8482850162000293565b91505092915050565b6000604051905081810181811067ffffffffffffffff821117156200032f576200032e62000423565b5b8060405250919050565b600067ffffffffffffffff82111562000357576200035662000423565b5b602082029050602081019050919050565b600062000375826200037c565b9050919050565b600073ffffffffffffffffffffffffffffffffffffffff82169050919050565b6000819050919050565b6000620003b3826200039c565b91507fffffffffffffffffffffffffffffffffffffffffffffffffffffffffffffffff821415620003e957620003e8620003f4565b5b600182019050919050565b7f4e487b7100000000000000000000000000000000000000000000000000000000600052601160045260246000fd5b7f4e487b7100000000000000000000000000000000000000000000000000000000600052604160045260246000fd5b6200045d8162000368565b81146200046957600080fd5b50565b6105c3806200047c6000396000f3fe608060405234801561001057600080fd5b506004361061004c5760003560e01c80630b1ca49a1461005157806311aee3801461006d578063997072f71461008b578063ca6d56dc146100a9575b600080fd5b61006b600480360381019061006691906103ae565b6100c5565b005b6100756101c8565b604051610082919061046c565b60405180910390f35b6100936101ce565b6040516100a0919061046c565b60405180910390f35b6100c360048036038101906100be91906103ae565b6101d8565b005b600360009054906101000a900473ffffffffffffffffffffffffffffffffffffffff1673ffffffffffffffffffffffffffffffffffffffff163373ffffffffffffffffffffffffffffffffffffffff1614610155576040517f08c379a000000000000000000000000000000000000000000000000000000000815260040161014c9061044c565b60405180910390fd5b6000600160008373ffffffffffffffffffffffffffffffffffffffff1673ffffffffffffffffffffffffffffffffffffffff16815260200190815260200160002060006101000a81548160ff021916908315150217905550600260008154809291906101c0906104d4565b919050555050565b60025481565b6000600254905090565b600360009054906101000a900473ffffffffffffffffffffffffffffffffffffffff1673ffffffffffffffffffffffffffffffffffffffff163373ffffffffffffffffffffffffffffffffffffffff1614610268576040517f08c379a000000000000000000000000000000000000000000000000000000000815260040161025f9061044c565b60405180910390fd5b6000604051806060016040528060008054905081526020018373ffffffffffffffffffffffffffffffffffffffff168152602001600081525090806001815401808255809150506001900390600052602060002090600302016000909190919091506000820151816000015560208201518160010160006101000a81548173ffffffffffffffffffffffffffffffffffffffff021916908373ffffffffffffffffffffffffffffffffffffffff16021790555060408201518160020155505060018060008373ffffffffffffffffffffffffffffffffffffffff1673ffffffffffffffffffffffffffffffffffffffff16815260200190815260200160002060006101000a81548160ff02191690831515021790555060026000815480929190610391906104fe565b919050555050565b6000813590506103a881610576565b92915050565b6000602082840312156103c057600080fd5b60006103ce84828501610399565b91505092915050565b60006103e4602383610487565b91507f4e6f742061636365737369626c6520746f206e6f6e2d61646d696e206d656d6260008301527f65727300000000000000000000000000000000000000000000000000000000006020830152604082019050919050565b610446816104ca565b82525050565b60006020820190508181036000830152610465816103d7565b9050919050565b6000602082019050610481600083018461043d565b92915050565b600082825260208201905092915050565b60006104a3826104aa565b9050919050565b600073ffffffffffffffffffffffffffffffffffffffff82169050919050565b6000819050919050565b60006104df826104ca565b915060008214156104f3576104f2610547565b5b600182039050919050565b6000610509826104ca565b91507fffffffffffffffffffffffffffffffffffffffffffffffffffffffffffffffff82141561053c5761053b610547565b5b600182019050919050565b7f4e487b7100000000000000000000000000000000000000000000000000000000600052601160045260246000fd5b61057f81610498565b811461058a57600080fd5b5056fea2646970667358221220459485c432738ed52a49fd9b177d9b0897267611e0487cb40c044cb5dacf7e1464736f6c63430008000033",
  "immutableReferences": {},
  "source": "// SPDX-License-Identifier: MIT\npragma solidity >=0.8.0 <0.9.0;\n\ncontract Team {\n\n  struct Member {\n    uint id;\n    address wallet;\n    uint256 allowance;\n  }\n\n  Member[] members;\n  mapping(address => bool) isActiveMember;\n  uint256 public memberCount;\n\n  address admin;\n\n  modifier teamOnly {\n    require(isActiveMember[msg.sender] == true, \"Not accessible to non-team members\");\n    _;\n  }\n\n  modifier adminOnly {\n    require(msg.sender == admin, \"Not accessible to non-admin members\");\n    _;\n  }\n\n  constructor(address[] memory _members) public {\n    memberCount = 0;\n    for(uint i = 0; i < _members.length; i++) {\n      address wallet = _members[i];\n      members.push(Member(i, _members[i], 0));\n      memberCount ++;\n    }\n    admin = msg.sender;\n  }\n\n  function addMember(address _new) public adminOnly {\n    members.push(Member(members.length, _new, 0));\n    isActiveMember[_new] = true;\n    memberCount ++;\n  }\n\n  function removeMember(address _old) public adminOnly {\n    isActiveMember[_old] = false;\n    memberCount --;\n  }\n\n  function getMemberCount() public returns(uint256){\n    return memberCount;\n  }\n}\n",
  "sourcePath": "/Users/esengulov/WebstormProjects/HS-DAO/multisig/contracts/Team.sol",
  "compiler": {
    "name": "solc",
    "version": "0.8.0+commit.c7dfd78e.Emscripten.clang"
  },
  "schemaVersion": "3.4.1",
  "updatedAt": "2021-07-13T11:43:55.374Z",
  "devdoc": {
    "kind": "dev",
    "methods": {},
    "version": 1
  },
  "userdoc": {
    "kind": "user",
    "methods": {},
    "version": 1
  }
}