{
  "contractName": "Treasury",
  "abi": [
    {
      "inputs": [
        {
          "internalType": "uint256",
          "name": "_limit",
          "type": "uint256"
        },
        {
          "internalType": "address[]",
          "name": "members",
          "type": "address[]"
        }
      ],
      "stateMutability": "nonpayable",
      "type": "constructor"
    },
    {
      "inputs": [
        {
          "internalType": "address",
          "name": "_new",
          "type": "address"
        }
      ],
      "name": "addMember",
      "outputs": [],
      "stateMutability": "nonpayable",
      "type": "function"
    },
    {
      "inputs": [],
      "name": "getMemberCount",
      "outputs": [
        {
          "internalType": "uint256",
          "name": "",
          "type": "uint256"
        }
      ],
      "stateMutability": "nonpayable",
      "type": "function"
    },
    {
      "inputs": [],
      "name": "memberCount",
      "outputs": [
        {
          "internalType": "uint256",
          "name": "",
          "type": "uint256"
        }
      ],
      "stateMutability": "view",
      "type": "function",
      "constant": true
    },
    {
      "inputs": [
        {
          "internalType": "address",
          "name": "_old",
          "type": "address"
        }
      ],
      "name": "removeMember",
      "outputs": [],
      "stateMutability": "nonpayable",
      "type": "function"
    },
    {
      "inputs": [],
      "name": "deposit",
      "outputs": [],
      "stateMutability": "payable",
      "type": "function",
      "payable": true
    },
    {
      "inputs": [
        {
          "internalType": "uint256",
          "name": "_amount",
          "type": "uint256"
        },
        {
          "internalType": "address payable",
          "name": "_recipient",
          "type": "address"
        }
      ],
      "name": "transferRequest",
      "outputs": [],
      "stateMutability": "nonpayable",
      "type": "function"
    },
    {
      "inputs": [
        {
          "internalType": "uint256",
          "name": "_id",
          "type": "uint256"
        }
      ],
      "name": "approveRequest",
      "outputs": [],
      "stateMutability": "nonpayable",
      "type": "function"
    }
  ],
  "bytecode": "0x60806040523480156200001157600080fd5b506040516200151f3803806200151f8339818101604052810190620000379190620002e1565b80600060028190555060005b8151811015620001bf57600082828151811062000089577f4e487b7100000000000000000000000000000000000000000000000000000000600052603260045260246000fd5b6020026020010151905060006040518060600160405280848152602001858581518110620000e0577f4e487b7100000000000000000000000000000000000000000000000000000000600052603260045260246000fd5b602002602001015173ffffffffffffffffffffffffffffffffffffffff168152602001600081525090806001815401808255809150506001900390600052602060002090600302016000909190919091506000820151816000015560208201518160010160006101000a81548173ffffffffffffffffffffffffffffffffffffffff021916908373ffffffffffffffffffffffffffffffffffffffff16021790555060408201518160020155505060026000815480929190620001a390620003dc565b9190505550508080620001b690620003dc565b91505062000043565b5033600360006101000a81548173ffffffffffffffffffffffffffffffffffffffff021916908373ffffffffffffffffffffffffffffffffffffffff16021790555050816004819055505050620004bc565b60006200022862000222846200036f565b6200033b565b905080838252602082019050828560208602820111156200024857600080fd5b60005b858110156200027c578162000261888262000286565b8452602084019350602083019250506001810190506200024b565b5050509392505050565b600081519050620002978162000488565b92915050565b600082601f830112620002af57600080fd5b8151620002c184826020860162000211565b91505092915050565b600081519050620002db81620004a2565b92915050565b60008060408385031215620002f557600080fd5b60006200030585828601620002ca565b925050602083015167ffffffffffffffff8111156200032357600080fd5b62000331858286016200029d565b9150509250929050565b6000604051905081810181811067ffffffffffffffff8211171562000365576200036462000459565b5b8060405250919050565b600067ffffffffffffffff8211156200038d576200038c62000459565b5b602082029050602081019050919050565b6000620003ab82620003b2565b9050919050565b600073ffffffffffffffffffffffffffffffffffffffff82169050919050565b6000819050919050565b6000620003e982620003d2565b91507fffffffffffffffffffffffffffffffffffffffffffffffffffffffffffffffff8214156200041f576200041e6200042a565b5b600182019050919050565b7f4e487b7100000000000000000000000000000000000000000000000000000000600052601160045260246000fd5b7f4e487b7100000000000000000000000000000000000000000000000000000000600052604160045260246000fd5b62000493816200039e565b81146200049f57600080fd5b50565b620004ad81620003d2565b8114620004b957600080fd5b50565b61105380620004cc6000396000f3fe6080604052600436106100705760003560e01c8063ca6d56dc1161004e578063ca6d56dc146100f4578063d0e30db01461011d578063d7d1bbdb14610127578063d99a16c51461015057610070565b80630b1ca49a1461007557806311aee3801461009e578063997072f7146100c9575b600080fd5b34801561008157600080fd5b5061009c60048036038101906100979190610b51565b610179565b005b3480156100aa57600080fd5b506100b361027c565b6040516100c09190610e06565b60405180910390f35b3480156100d557600080fd5b506100de610282565b6040516100eb9190610e06565b60405180910390f35b34801561010057600080fd5b5061011b60048036038101906101169190610b51565b61028c565b005b61012561044d565b005b34801561013357600080fd5b5061014e60048036038101906101499190610b7a565b61044f565b005b34801561015c57600080fd5b5061017760048036038101906101729190610ba3565b610766565b005b600360009054906101000a900473ffffffffffffffffffffffffffffffffffffffff1673ffffffffffffffffffffffffffffffffffffffff163373ffffffffffffffffffffffffffffffffffffffff1614610209576040517f08c379a000000000000000000000000000000000000000000000000000000000815260040161020090610d86565b60405180910390fd5b6000600160008373ffffffffffffffffffffffffffffffffffffffff1673ffffffffffffffffffffffffffffffffffffffff16815260200190815260200160002060006101000a81548160ff0219169083151502179055506002600081548092919061027490610f07565b919050555050565b60025481565b6000600254905090565b600360009054906101000a900473ffffffffffffffffffffffffffffffffffffffff1673ffffffffffffffffffffffffffffffffffffffff163373ffffffffffffffffffffffffffffffffffffffff161461031c576040517f08c379a000000000000000000000000000000000000000000000000000000000815260040161031390610d86565b60405180910390fd5b6000604051806060016040528060008054905081526020018373ffffffffffffffffffffffffffffffffffffffff168152602001600081525090806001815401808255809150506001900390600052602060002090600302016000909190919091506000820151816000015560208201518160010160006101000a81548173ffffffffffffffffffffffffffffffffffffffff021916908373ffffffffffffffffffffffffffffffffffffffff16021790555060408201518160020155505060018060008373ffffffffffffffffffffffffffffffffffffffff1673ffffffffffffffffffffffffffffffffffffffff16815260200190815260200160002060006101000a81548160ff0219169083151502179055506002600081548092919061044590610f31565b919050555050565b565b60011515600160003373ffffffffffffffffffffffffffffffffffffffff1673ffffffffffffffffffffffffffffffffffffffff16815260200190815260200160002060009054906101000a900460ff161515146104e2576040517f08c379a00000000000000000000000000000000000000000000000000000000081526004016104d990610da6565b60405180910390fd5b60001515600660003373ffffffffffffffffffffffffffffffffffffffff1673ffffffffffffffffffffffffffffffffffffffff168152602001908152602001600020600083815260200190815260200160002060009054906101000a900460ff16151514610586576040517f08c379a000000000000000000000000000000000000000000000000000000000815260040161057d90610de6565b60405180910390fd5b6001600660003373ffffffffffffffffffffffffffffffffffffffff1673ffffffffffffffffffffffffffffffffffffffff168152602001908152602001600020600083815260200190815260200160002060006101000a81548160ff02191690831515021790555060058181548110610629577f4e487b7100000000000000000000000000000000000000000000000000000000600052603260045260246000fd5b9060005260206000209060050201600201600081548092919061064b90610f31565b919050555060006005828154811061068c577f4e487b7100000000000000000000000000000000000000000000000000000000600052603260045260246000fd5b90600052602060002090600502016002015490506004548110610762576106fd600583815481106106e6577f4e487b7100000000000000000000000000000000000000000000000000000000600052603260045260246000fd5b906000526020600020906005020160000154610946565b600160058381548110610739577f4e487b7100000000000000000000000000000000000000000000000000000000600052603260045260246000fd5b906000526020600020906005020160040160006101000a81548160ff0219169083151502179055505b5050565b60011515600160003373ffffffffffffffffffffffffffffffffffffffff1673ffffffffffffffffffffffffffffffffffffffff16815260200190815260200160002060009054906101000a900460ff161515146107f9576040517f08c379a00000000000000000000000000000000000000000000000000000000081526004016107f090610da6565b60405180910390fd5b8147101561083c576040517f08c379a000000000000000000000000000000000000000000000000000000000815260040161083390610dc6565b60405180910390fd5b60056040518060a001604052808481526020018373ffffffffffffffffffffffffffffffffffffffff1681526020016000815260200160058054905081526020016000151581525090806001815401808255809150506001900390600052602060002090600502016000909190919091506000820151816000015560208201518160010160006101000a81548173ffffffffffffffffffffffffffffffffffffffff021916908373ffffffffffffffffffffffffffffffffffffffff160217905550604082015181600201556060820151816003015560808201518160040160006101000a81548160ff021916908315150217905550505061094260058054905061044f565b5050565b600061095482600254610ae6565b905060005b600080549050811015610ae15760011515600160008084815481106109a7577f4e487b7100000000000000000000000000000000000000000000000000000000600052603260045260246000fd5b906000526020600020906003020160010160009054906101000a900473ffffffffffffffffffffffffffffffffffffffff1673ffffffffffffffffffffffffffffffffffffffff1673ffffffffffffffffffffffffffffffffffffffff16815260200190815260200160002060009054906101000a900460ff1615151415610ace57610a7e60008281548110610a66577f4e487b7100000000000000000000000000000000000000000000000000000000600052603260045260246000fd5b90600052602060002090600302016002015483610afc565b60008281548110610ab8577f4e487b7100000000000000000000000000000000000000000000000000000000600052603260045260246000fd5b9060005260206000209060030201600201819055505b8080610ad990610f31565b915050610959565b505050565b60008183610af49190610e88565b905092915050565b60008183610b0a9190610e32565b905092915050565b600081359050610b2181610fd8565b92915050565b600081359050610b3681610fef565b92915050565b600081359050610b4b81611006565b92915050565b600060208284031215610b6357600080fd5b6000610b7184828501610b12565b91505092915050565b600060208284031215610b8c57600080fd5b6000610b9a84828501610b3c565b91505092915050565b60008060408385031215610bb657600080fd5b6000610bc485828601610b3c565b9250506020610bd585828601610b27565b9150509250929050565b6000610bec602383610e21565b91507f4e6f742061636365737369626c6520746f206e6f6e2d61646d696e206d656d6260008301527f65727300000000000000000000000000000000000000000000000000000000006020830152604082019050919050565b6000610c52602283610e21565b91507f4e6f742061636365737369626c6520746f206e6f6e2d7465616d206d656d626560008301527f72730000000000000000000000000000000000000000000000000000000000006020830152604082019050919050565b6000610cb8602a83610e21565b91507f52657175657374656420416d6f756e74206578636565647320617661696c616260008301527f6c652062616c616e6365000000000000000000000000000000000000000000006020830152604082019050919050565b6000610d1e602383610e21565b91507f7573657220616c726561647920766f746564206f6e20746869732070726f706f60008301527f73616c00000000000000000000000000000000000000000000000000000000006020830152604082019050919050565b610d8081610efd565b82525050565b60006020820190508181036000830152610d9f81610bdf565b9050919050565b60006020820190508181036000830152610dbf81610c45565b9050919050565b60006020820190508181036000830152610ddf81610cab565b9050919050565b60006020820190508181036000830152610dff81610d11565b9050919050565b6000602082019050610e1b6000830184610d77565b92915050565b600082825260208201905092915050565b6000610e3d82610efd565b9150610e4883610efd565b9250827fffffffffffffffffffffffffffffffffffffffffffffffffffffffffffffffff03821115610e7d57610e7c610f7a565b5b828201905092915050565b6000610e9382610efd565b9150610e9e83610efd565b925082610eae57610ead610fa9565b5b828204905092915050565b6000610ec482610edd565b9050919050565b6000610ed682610edd565b9050919050565b600073ffffffffffffffffffffffffffffffffffffffff82169050919050565b6000819050919050565b6000610f1282610efd565b91506000821415610f2657610f25610f7a565b5b600182039050919050565b6000610f3c82610efd565b91507fffffffffffffffffffffffffffffffffffffffffffffffffffffffffffffffff821415610f6f57610f6e610f7a565b5b600182019050919050565b7f4e487b7100000000000000000000000000000000000000000000000000000000600052601160045260246000fd5b7f4e487b7100000000000000000000000000000000000000000000000000000000600052601260045260246000fd5b610fe181610eb9565b8114610fec57600080fd5b50565b610ff881610ecb565b811461100357600080fd5b50565b61100f81610efd565b811461101a57600080fd5b5056fea2646970667358221220d5b1036cdfc48dfabff112d1bb396e7a05dd3e376bb73288162b1c3c26b5b4a864736f6c63430008000033",
  "immutableReferences": {},
  "source": "// SPDX-License-Identifier: MIT\npragma solidity >=0.8.0 <0.9.0;\n\nimport \"./Team.sol\";\nimport \"@openzeppelin/contracts/utils/math/SafeMath.sol\";\n\ncontract Treasury is Team {\n  using SafeMath for uint;\n\n  uint approvalLimit;\n\n  struct TransferRequest {\n    uint amount;\n    address payable recipient;\n    uint approvalCount;\n    uint id;\n    bool completed;\n  }\n\n  TransferRequest[] transferRequests;\n  mapping(address => mapping(uint => bool)) voted;\n\n  constructor(uint _limit, address[] memory members) Team(members) public {\n    approvalLimit = _limit;\n  }\n\n  // accept public deposits\n  function deposit() public payable {\n  }\n\n  function transferRequest(uint _amount, address payable _recipient) public teamOnly {\n    require(address(this).balance >= _amount, \"Requested Amount exceeds available balance\");\n    transferRequests.push(TransferRequest(_amount, _recipient, 0, transferRequests.length, false));\n    approveRequest(transferRequests.length);\n  }\n\n  function approveRequest(uint _id) public teamOnly {\n    require(voted[msg.sender][_id] == false, \"user already voted on this proposal\");\n    voted[msg.sender][_id] = true;\n    transferRequests[_id].approvalCount ++;\n    uint _approvals = transferRequests[_id].approvalCount;\n    if(_approvals >= approvalLimit) {\n      payTeam(transferRequests[_id].amount);\n      transferRequests[_id].completed = true;\n    }\n  }\n\n  function payTeam(uint256 _amount) private {\n    uint newPayment = SafeMath.div(_amount, memberCount);\n    for(uint i = 0; i < members.length; i++) {\n      if(isActiveMember[members[i].wallet] == true) {\n        members[i].allowance = SafeMath.add(members[i].allowance, newPayment);\n      }\n    }\n  }\n\n}\n",
  "sourcePath": "/Users/esengulov/WebstormProjects/HS-DAO/multisig/contracts/Treasury.sol",
  "compiler": {
    "name": "solc",
    "version": "0.8.0+commit.c7dfd78e.Emscripten.clang"
  },
  "schemaVersion": "3.4.1",
  "updatedAt": "2021-07-13T11:43:56.346Z",
  "networkType": "ethereum",
  "devdoc": {
    "kind": "dev",
    "methods": {},
    "version": 1
  },
  "userdoc": {
    "kind": "user",
    "methods": {},
    "version": 1
  }
}