{
  "contractName": "Treasury",
  "abi": [
    {
      "inputs": [
        {
          "internalType": "uint256",
          "name": "_limit",
          "type": "uint256"
        },
        {
          "internalType": "address[]",
          "name": "members",
          "type": "address[]"
        }
      ],
      "stateMutability": "nonpayable",
      "type": "constructor"
    },
    {
      "inputs": [
        {
          "internalType": "address",
          "name": "_new",
          "type": "address"
        }
      ],
      "name": "addMember",
      "outputs": [],
      "stateMutability": "nonpayable",
      "type": "function"
    },
    {
      "inputs": [
        {
          "internalType": "address",
          "name": "_old",
          "type": "address"
        }
      ],
      "name": "removeMember",
      "outputs": [],
      "stateMutability": "nonpayable",
      "type": "function"
    },
    {
      "inputs": [],
      "name": "deposit",
      "outputs": [],
      "stateMutability": "payable",
      "type": "function",
      "payable": true
    },
    {
      "inputs": [
        {
          "internalType": "uint256",
          "name": "_amount",
          "type": "uint256"
        },
        {
          "internalType": "address payable",
          "name": "_recipient",
          "type": "address"
        }
      ],
      "name": "transferRequest",
      "outputs": [],
      "stateMutability": "nonpayable",
      "type": "function"
    },
    {
      "inputs": [
        {
          "internalType": "uint256",
          "name": "_id",
          "type": "uint256"
        }
      ],
      "name": "approveRequest",
      "outputs": [],
      "stateMutability": "nonpayable",
      "type": "function"
    }
  ],
  "bytecode": "0x60806040523480156200001157600080fd5b5060405162001461380380620014618339818101604052810190620000379190620002d9565b8060005b8151811015620001b757600082828151811062000081577f4e487b7100000000000000000000000000000000000000000000000000000000600052603260045260246000fd5b6020026020010151905060006040518060600160405280848152602001858581518110620000d8577f4e487b7100000000000000000000000000000000000000000000000000000000600052603260045260246000fd5b602002602001015173ffffffffffffffffffffffffffffffffffffffff168152602001600081525090806001815401808255809150506001900390600052602060002090600302016000909190919091506000820151816000015560208201518160010160006101000a81548173ffffffffffffffffffffffffffffffffffffffff021916908373ffffffffffffffffffffffffffffffffffffffff160217905550604082015181600201555050600260008154809291906200019b90620003d4565b9190505550508080620001ae90620003d4565b9150506200003b565b5033600360006101000a81548173ffffffffffffffffffffffffffffffffffffffff021916908373ffffffffffffffffffffffffffffffffffffffff16021790555050816004819055505050620004b4565b6000620002206200021a8462000367565b62000333565b905080838252602082019050828560208602820111156200024057600080fd5b60005b858110156200027457816200025988826200027e565b84526020840193506020830192505060018101905062000243565b5050509392505050565b6000815190506200028f8162000480565b92915050565b600082601f830112620002a757600080fd5b8151620002b984826020860162000209565b91505092915050565b600081519050620002d3816200049a565b92915050565b60008060408385031215620002ed57600080fd5b6000620002fd85828601620002c2565b925050602083015167ffffffffffffffff8111156200031b57600080fd5b620003298582860162000295565b9150509250929050565b6000604051905081810181811067ffffffffffffffff821117156200035d576200035c62000451565b5b8060405250919050565b600067ffffffffffffffff82111562000385576200038462000451565b5b602082029050602081019050919050565b6000620003a382620003aa565b9050919050565b600073ffffffffffffffffffffffffffffffffffffffff82169050919050565b6000819050919050565b6000620003e182620003ca565b91507fffffffffffffffffffffffffffffffffffffffffffffffffffffffffffffffff82141562000417576200041662000422565b5b600182019050919050565b7f4e487b7100000000000000000000000000000000000000000000000000000000600052601160045260246000fd5b7f4e487b7100000000000000000000000000000000000000000000000000000000600052604160045260246000fd5b6200048b8162000396565b81146200049757600080fd5b50565b620004a581620003ca565b8114620004b157600080fd5b50565b610f9d80620004c46000396000f3fe60806040526004361061004a5760003560e01c80630b1ca49a1461004f578063ca6d56dc14610078578063d0e30db0146100a1578063d7d1bbdb146100ab578063d99a16c5146100d4575b600080fd5b34801561005b57600080fd5b5061007660048036038101906100719190610ac5565b6100fd565b005b34801561008457600080fd5b5061009f600480360381019061009a9190610ac5565b610200565b005b6100a96103c1565b005b3480156100b757600080fd5b506100d260048036038101906100cd9190610aee565b6103c3565b005b3480156100e057600080fd5b506100fb60048036038101906100f69190610b17565b6106da565b005b600360009054906101000a900473ffffffffffffffffffffffffffffffffffffffff1673ffffffffffffffffffffffffffffffffffffffff163373ffffffffffffffffffffffffffffffffffffffff161461018d576040517f08c379a000000000000000000000000000000000000000000000000000000000815260040161018490610ceb565b60405180910390fd5b6000600160008373ffffffffffffffffffffffffffffffffffffffff1673ffffffffffffffffffffffffffffffffffffffff16815260200190815260200160002060006101000a81548160ff021916908315150217905550600260008154809291906101f890610e51565b919050555050565b600360009054906101000a900473ffffffffffffffffffffffffffffffffffffffff1673ffffffffffffffffffffffffffffffffffffffff163373ffffffffffffffffffffffffffffffffffffffff1614610290576040517f08c379a000000000000000000000000000000000000000000000000000000000815260040161028790610ceb565b60405180910390fd5b6000604051806060016040528060008054905081526020018373ffffffffffffffffffffffffffffffffffffffff168152602001600081525090806001815401808255809150506001900390600052602060002090600302016000909190919091506000820151816000015560208201518160010160006101000a81548173ffffffffffffffffffffffffffffffffffffffff021916908373ffffffffffffffffffffffffffffffffffffffff16021790555060408201518160020155505060018060008373ffffffffffffffffffffffffffffffffffffffff1673ffffffffffffffffffffffffffffffffffffffff16815260200190815260200160002060006101000a81548160ff021916908315150217905550600260008154809291906103b990610e7b565b919050555050565b565b60011515600160003373ffffffffffffffffffffffffffffffffffffffff1673ffffffffffffffffffffffffffffffffffffffff16815260200190815260200160002060009054906101000a900460ff16151514610456576040517f08c379a000000000000000000000000000000000000000000000000000000000815260040161044d90610d0b565b60405180910390fd5b60001515600660003373ffffffffffffffffffffffffffffffffffffffff1673ffffffffffffffffffffffffffffffffffffffff168152602001908152602001600020600083815260200190815260200160002060009054906101000a900460ff161515146104fa576040517f08c379a00000000000000000000000000000000000000000000000000000000081526004016104f190610d4b565b60405180910390fd5b6001600660003373ffffffffffffffffffffffffffffffffffffffff1673ffffffffffffffffffffffffffffffffffffffff168152602001908152602001600020600083815260200190815260200160002060006101000a81548160ff0219169083151502179055506005818154811061059d577f4e487b7100000000000000000000000000000000000000000000000000000000600052603260045260246000fd5b906000526020600020906005020160020160008154809291906105bf90610e7b565b9190505550600060058281548110610600577f4e487b7100000000000000000000000000000000000000000000000000000000600052603260045260246000fd5b906000526020600020906005020160020154905060045481106106d6576106716005838154811061065a577f4e487b7100000000000000000000000000000000000000000000000000000000600052603260045260246000fd5b9060005260206000209060050201600001546108ba565b6001600583815481106106ad577f4e487b7100000000000000000000000000000000000000000000000000000000600052603260045260246000fd5b906000526020600020906005020160040160006101000a81548160ff0219169083151502179055505b5050565b60011515600160003373ffffffffffffffffffffffffffffffffffffffff1673ffffffffffffffffffffffffffffffffffffffff16815260200190815260200160002060009054906101000a900460ff1615151461076d576040517f08c379a000000000000000000000000000000000000000000000000000000000815260040161076490610d0b565b60405180910390fd5b814710156107b0576040517f08c379a00000000000000000000000000000000000000000000000000000000081526004016107a790610d2b565b60405180910390fd5b60056040518060a001604052808481526020018373ffffffffffffffffffffffffffffffffffffffff1681526020016000815260200160058054905081526020016000151581525090806001815401808255809150506001900390600052602060002090600502016000909190919091506000820151816000015560208201518160010160006101000a81548173ffffffffffffffffffffffffffffffffffffffff021916908373ffffffffffffffffffffffffffffffffffffffff160217905550604082015181600201556060820151816003015560808201518160040160006101000a81548160ff02191690831515021790555050506108b66005805490506103c3565b5050565b60006108c882600254610a5a565b905060005b600080549050811015610a5557600115156001600080848154811061091b577f4e487b7100000000000000000000000000000000000000000000000000000000600052603260045260246000fd5b906000526020600020906003020160010160009054906101000a900473ffffffffffffffffffffffffffffffffffffffff1673ffffffffffffffffffffffffffffffffffffffff1673ffffffffffffffffffffffffffffffffffffffff16815260200190815260200160002060009054906101000a900460ff1615151415610a42576109f2600082815481106109da577f4e487b7100000000000000000000000000000000000000000000000000000000600052603260045260246000fd5b90600052602060002090600302016002015483610a70565b60008281548110610a2c577f4e487b7100000000000000000000000000000000000000000000000000000000600052603260045260246000fd5b9060005260206000209060030201600201819055505b8080610a4d90610e7b565b9150506108cd565b505050565b60008183610a689190610dd2565b905092915050565b60008183610a7e9190610d7c565b905092915050565b600081359050610a9581610f22565b92915050565b600081359050610aaa81610f39565b92915050565b600081359050610abf81610f50565b92915050565b600060208284031215610ad757600080fd5b6000610ae584828501610a86565b91505092915050565b600060208284031215610b0057600080fd5b6000610b0e84828501610ab0565b91505092915050565b60008060408385031215610b2a57600080fd5b6000610b3885828601610ab0565b9250506020610b4985828601610a9b565b9150509250929050565b6000610b60602383610d6b565b91507f4e6f742061636365737369626c6520746f206e6f6e2d61646d696e206d656d6260008301527f65727300000000000000000000000000000000000000000000000000000000006020830152604082019050919050565b6000610bc6602283610d6b565b91507f4e6f742061636365737369626c6520746f206e6f6e2d7465616d206d656d626560008301527f72730000000000000000000000000000000000000000000000000000000000006020830152604082019050919050565b6000610c2c602a83610d6b565b91507f52657175657374656420416d6f756e74206578636565647320617661696c616260008301527f6c652062616c616e6365000000000000000000000000000000000000000000006020830152604082019050919050565b6000610c92602383610d6b565b91507f7573657220616c726561647920766f746564206f6e20746869732070726f706f60008301527f73616c00000000000000000000000000000000000000000000000000000000006020830152604082019050919050565b60006020820190508181036000830152610d0481610b53565b9050919050565b60006020820190508181036000830152610d2481610bb9565b9050919050565b60006020820190508181036000830152610d4481610c1f565b9050919050565b60006020820190508181036000830152610d6481610c85565b9050919050565b600082825260208201905092915050565b6000610d8782610e47565b9150610d9283610e47565b9250827fffffffffffffffffffffffffffffffffffffffffffffffffffffffffffffffff03821115610dc757610dc6610ec4565b5b828201905092915050565b6000610ddd82610e47565b9150610de883610e47565b925082610df857610df7610ef3565b5b828204905092915050565b6000610e0e82610e27565b9050919050565b6000610e2082610e27565b9050919050565b600073ffffffffffffffffffffffffffffffffffffffff82169050919050565b6000819050919050565b6000610e5c82610e47565b91506000821415610e7057610e6f610ec4565b5b600182039050919050565b6000610e8682610e47565b91507fffffffffffffffffffffffffffffffffffffffffffffffffffffffffffffffff821415610eb957610eb8610ec4565b5b600182019050919050565b7f4e487b7100000000000000000000000000000000000000000000000000000000600052601160045260246000fd5b7f4e487b7100000000000000000000000000000000000000000000000000000000600052601260045260246000fd5b610f2b81610e03565b8114610f3657600080fd5b50565b610f4281610e15565b8114610f4d57600080fd5b50565b610f5981610e47565b8114610f6457600080fd5b5056fea264697066735822122059360af6e008dbc1866ca5cabef03f6ffe35dc86668af4401bc04a185a63d54864736f6c63430008000033",
  "immutableReferences": {},
  "source": "// SPDX-License-Identifier: MIT\npragma solidity >=0.8.0 <0.9.0;\n\nimport \"./Team.sol\";\nimport \"@openzeppelin/contracts/utils/math/SafeMath.sol\";\n\ncontract Treasury is Team {\n  using SafeMath for uint;\n\n  uint approvalLimit;\n\n  struct TransferRequest {\n    uint amount;\n    address payable recipient;\n    uint approvalCount;\n    uint id;\n    bool completed;\n  }\n\n  TransferRequest[] transferRequests;\n  mapping(address => mapping(uint => bool)) voted;\n\n  constructor(uint _limit, address[] memory members) Team(members) public {\n    approvalLimit = _limit;\n  }\n\n  // accept public deposits\n  function deposit() public payable {\n  }\n\n  function transferRequest(uint _amount, address payable _recipient) public teamOnly {\n    require(address(this).balance >= _amount, \"Requested Amount exceeds available balance\");\n    transferRequests.push(TransferRequest(_amount, _recipient, 0, transferRequests.length, false));\n    approveRequest(transferRequests.length);\n  }\n\n  function approveRequest(uint _id) public teamOnly {\n    require(voted[msg.sender][_id] == false, \"user already voted on this proposal\");\n    voted[msg.sender][_id] = true;\n    transferRequests[_id].approvalCount ++;\n    uint _approvals = transferRequests[_id].approvalCount;\n    if(_approvals >= approvalLimit) {\n      payTeam(transferRequests[_id].amount);\n      transferRequests[_id].completed = true;\n    }\n  }\n\n  function payTeam(uint256 _amount) private {\n    uint newPayment = SafeMath.div(_amount, memberCount);\n    for(uint i = 0; i < members.length; i++) {\n      if(isActiveMember[members[i].wallet] == true) {\n        members[i].allowance = SafeMath.add(members[i].allowance, newPayment);\n      }\n    }\n  }\n\n}\n",
  "sourcePath": "/Users/esengulov/WebstormProjects/HS-DAO/multisig/contracts/Treasury.sol",
  "compiler": {
    "name": "solc",
    "version": "0.8.0+commit.c7dfd78e.Emscripten.clang"
  },
  "schemaVersion": "3.4.1",
  "updatedAt": "2021-06-23T09:11:30.256Z",
  "networkType": "ethereum",
  "devdoc": {
    "kind": "dev",
    "methods": {},
    "version": 1
  },
  "userdoc": {
    "kind": "user",
    "methods": {},
    "version": 1
  }
}