{
  "contractName": "Treasury",
  "abi": [
    {
      "inputs": [
        {
          "internalType": "uint256",
          "name": "_limit",
          "type": "uint256"
        },
        {
          "internalType": "address[]",
          "name": "members",
          "type": "address[]"
        }
      ],
      "stateMutability": "nonpayable",
      "type": "constructor"
    },
    {
      "inputs": [
        {
          "internalType": "address",
          "name": "_new",
          "type": "address"
        }
      ],
      "name": "addMember",
      "outputs": [],
      "stateMutability": "nonpayable",
      "type": "function"
    },
    {
      "inputs": [],
      "name": "memberCount",
      "outputs": [
        {
          "internalType": "uint256",
          "name": "",
          "type": "uint256"
        }
      ],
      "stateMutability": "view",
      "type": "function",
      "constant": true
    },
    {
      "inputs": [
        {
          "internalType": "uint256",
          "name": "",
          "type": "uint256"
        }
      ],
      "name": "members",
      "outputs": [
        {
          "internalType": "uint256",
          "name": "id",
          "type": "uint256"
        },
        {
          "internalType": "address",
          "name": "wallet",
          "type": "address"
        },
        {
          "internalType": "uint256",
          "name": "allowance",
          "type": "uint256"
        }
      ],
      "stateMutability": "view",
      "type": "function",
      "constant": true
    },
    {
      "inputs": [
        {
          "internalType": "address",
          "name": "_old",
          "type": "address"
        }
      ],
      "name": "removeMember",
      "outputs": [],
      "stateMutability": "nonpayable",
      "type": "function"
    },
    {
      "inputs": [
        {
          "internalType": "uint256",
          "name": "",
          "type": "uint256"
        }
      ],
      "name": "transferRequests",
      "outputs": [
        {
          "internalType": "uint256",
          "name": "amount",
          "type": "uint256"
        },
        {
          "internalType": "address payable",
          "name": "recipient",
          "type": "address"
        },
        {
          "internalType": "uint256",
          "name": "approvalCount",
          "type": "uint256"
        },
        {
          "internalType": "uint256",
          "name": "id",
          "type": "uint256"
        },
        {
          "internalType": "bool",
          "name": "completed",
          "type": "bool"
        }
      ],
      "stateMutability": "view",
      "type": "function",
      "constant": true
    },
    {
      "inputs": [],
      "name": "deposit",
      "outputs": [],
      "stateMutability": "payable",
      "type": "function",
      "payable": true
    },
    {
      "inputs": [
        {
          "internalType": "uint256",
          "name": "_amount",
          "type": "uint256"
        },
        {
          "internalType": "address payable",
          "name": "_recipient",
          "type": "address"
        }
      ],
      "name": "transferRequest",
      "outputs": [],
      "stateMutability": "nonpayable",
      "type": "function"
    },
    {
      "inputs": [
        {
          "internalType": "uint256",
          "name": "_id",
          "type": "uint256"
        }
      ],
      "name": "approveRequest",
      "outputs": [],
      "stateMutability": "nonpayable",
      "type": "function"
    },
    {
      "inputs": [],
      "name": "requestCount",
      "outputs": [
        {
          "internalType": "uint256",
          "name": "",
          "type": "uint256"
        }
      ],
      "stateMutability": "view",
      "type": "function",
      "constant": true
    }
  ],
  "bytecode": "0x60806040523480156200001157600080fd5b50604051620017e0380380620017e0833981810160405281019062000037919062000379565b80600060028190555060005b81518110156200025757600082828151811062000089577f4e487b7100000000000000000000000000000000000000000000000000000000600052603260045260246000fd5b6020026020010151905060006040518060600160405280848152602001858581518110620000e0577f4e487b7100000000000000000000000000000000000000000000000000000000600052603260045260246000fd5b602002602001015173ffffffffffffffffffffffffffffffffffffffff168152602001600081525090806001815401808255809150506001900390600052602060002090600302016000909190919091506000820151816000015560208201518160010160006101000a81548173ffffffffffffffffffffffffffffffffffffffff021916908373ffffffffffffffffffffffffffffffffffffffff1602179055506040820151816002015550506001806000858581518110620001cd577f4e487b7100000000000000000000000000000000000000000000000000000000600052603260045260246000fd5b602002602001015173ffffffffffffffffffffffffffffffffffffffff1673ffffffffffffffffffffffffffffffffffffffff16815260200190815260200160002060006101000a81548160ff021916908315150217905550600260008154809291906200023b9062000474565b91905055505080806200024e9062000474565b91505062000043565b5033600360006101000a81548173ffffffffffffffffffffffffffffffffffffffff021916908373ffffffffffffffffffffffffffffffffffffffff1602179055505081600481905550505062000554565b6000620002c0620002ba8462000407565b620003d3565b90508083825260208201905082856020860282011115620002e057600080fd5b60005b85811015620003145781620002f988826200031e565b845260208401935060208301925050600181019050620002e3565b5050509392505050565b6000815190506200032f8162000520565b92915050565b600082601f8301126200034757600080fd5b815162000359848260208601620002a9565b91505092915050565b60008151905062000373816200053a565b92915050565b600080604083850312156200038d57600080fd5b60006200039d8582860162000362565b925050602083015167ffffffffffffffff811115620003bb57600080fd5b620003c98582860162000335565b9150509250929050565b6000604051905081810181811067ffffffffffffffff82111715620003fd57620003fc620004f1565b5b8060405250919050565b600067ffffffffffffffff821115620004255762000424620004f1565b5b602082029050602081019050919050565b600062000443826200044a565b9050919050565b600073ffffffffffffffffffffffffffffffffffffffff82169050919050565b6000819050919050565b600062000481826200046a565b91507fffffffffffffffffffffffffffffffffffffffffffffffffffffffffffffffff821415620004b757620004b6620004c2565b5b600182019050919050565b7f4e487b7100000000000000000000000000000000000000000000000000000000600052601160045260246000fd5b7f4e487b7100000000000000000000000000000000000000000000000000000000600052604160045260246000fd5b6200052b8162000436565b81146200053757600080fd5b50565b62000545816200046a565b81146200055157600080fd5b50565b61127c80620005646000396000f3fe6080604052600436106100865760003560e01c80635daf08ca116100595780635daf08ca1461014b578063ca6d56dc1461018a578063d0e30db0146101b3578063d7d1bbdb146101bd578063d99a16c5146101e657610086565b806303486c401461008b5780630b1ca49a146100cc57806311aee380146100f55780635badbe4c14610120575b600080fd5b34801561009757600080fd5b506100b260048036038101906100ad9190610ce0565b61020f565b6040516100c3959493929190610fb4565b60405180910390f35b3480156100d857600080fd5b506100f360048036038101906100ee9190610cb7565b610282565b005b34801561010157600080fd5b5061010a610385565b6040516101179190610f99565b60405180910390f35b34801561012c57600080fd5b5061013561038b565b6040516101429190610f99565b60405180910390f35b34801561015757600080fd5b50610172600480360381019061016d9190610ce0565b610398565b60405161018193929190611007565b60405180910390f35b34801561019657600080fd5b506101b160048036038101906101ac9190610cb7565b6103f2565b005b6101bb6105b3565b005b3480156101c957600080fd5b506101e460048036038101906101df9190610ce0565b6105b5565b005b3480156101f257600080fd5b5061020d60048036038101906102089190610d09565b6108cc565b005b6005818154811061021f57600080fd5b90600052602060002090600502016000915090508060000154908060010160009054906101000a900473ffffffffffffffffffffffffffffffffffffffff16908060020154908060030154908060040160009054906101000a900460ff16905085565b600360009054906101000a900473ffffffffffffffffffffffffffffffffffffffff1673ffffffffffffffffffffffffffffffffffffffff163373ffffffffffffffffffffffffffffffffffffffff1614610312576040517f08c379a000000000000000000000000000000000000000000000000000000000815260040161030990610f19565b60405180910390fd5b6000600160008373ffffffffffffffffffffffffffffffffffffffff1673ffffffffffffffffffffffffffffffffffffffff16815260200190815260200160002060006101000a81548160ff0219169083151502179055506002600081548092919061037d90611130565b919050555050565b60025481565b6000600580549050905090565b600081815481106103a857600080fd5b90600052602060002090600302016000915090508060000154908060010160009054906101000a900473ffffffffffffffffffffffffffffffffffffffff16908060020154905083565b600360009054906101000a900473ffffffffffffffffffffffffffffffffffffffff1673ffffffffffffffffffffffffffffffffffffffff163373ffffffffffffffffffffffffffffffffffffffff1614610482576040517f08c379a000000000000000000000000000000000000000000000000000000000815260040161047990610f19565b60405180910390fd5b6000604051806060016040528060008054905081526020018373ffffffffffffffffffffffffffffffffffffffff168152602001600081525090806001815401808255809150506001900390600052602060002090600302016000909190919091506000820151816000015560208201518160010160006101000a81548173ffffffffffffffffffffffffffffffffffffffff021916908373ffffffffffffffffffffffffffffffffffffffff16021790555060408201518160020155505060018060008373ffffffffffffffffffffffffffffffffffffffff1673ffffffffffffffffffffffffffffffffffffffff16815260200190815260200160002060006101000a81548160ff021916908315150217905550600260008154809291906105ab9061115a565b919050555050565b565b60011515600160003373ffffffffffffffffffffffffffffffffffffffff1673ffffffffffffffffffffffffffffffffffffffff16815260200190815260200160002060009054906101000a900460ff16151514610648576040517f08c379a000000000000000000000000000000000000000000000000000000000815260040161063f90610f39565b60405180910390fd5b60001515600660003373ffffffffffffffffffffffffffffffffffffffff1673ffffffffffffffffffffffffffffffffffffffff168152602001908152602001600020600083815260200190815260200160002060009054906101000a900460ff161515146106ec576040517f08c379a00000000000000000000000000000000000000000000000000000000081526004016106e390610f79565b60405180910390fd5b6001600660003373ffffffffffffffffffffffffffffffffffffffff1673ffffffffffffffffffffffffffffffffffffffff168152602001908152602001600020600083815260200190815260200160002060006101000a81548160ff0219169083151502179055506005818154811061078f577f4e487b7100000000000000000000000000000000000000000000000000000000600052603260045260246000fd5b906000526020600020906005020160020160008154809291906107b19061115a565b91905055506000600582815481106107f2577f4e487b7100000000000000000000000000000000000000000000000000000000600052603260045260246000fd5b906000526020600020906005020160020154905060045481106108c8576108636005838154811061084c577f4e487b7100000000000000000000000000000000000000000000000000000000600052603260045260246000fd5b906000526020600020906005020160000154610aac565b60016005838154811061089f577f4e487b7100000000000000000000000000000000000000000000000000000000600052603260045260246000fd5b906000526020600020906005020160040160006101000a81548160ff0219169083151502179055505b5050565b60011515600160003373ffffffffffffffffffffffffffffffffffffffff1673ffffffffffffffffffffffffffffffffffffffff16815260200190815260200160002060009054906101000a900460ff1615151461095f576040517f08c379a000000000000000000000000000000000000000000000000000000000815260040161095690610f39565b60405180910390fd5b814710156109a2576040517f08c379a000000000000000000000000000000000000000000000000000000000815260040161099990610f59565b60405180910390fd5b60056040518060a001604052808481526020018373ffffffffffffffffffffffffffffffffffffffff1681526020016000815260200160058054905081526020016000151581525090806001815401808255809150506001900390600052602060002090600502016000909190919091506000820151816000015560208201518160010160006101000a81548173ffffffffffffffffffffffffffffffffffffffff021916908373ffffffffffffffffffffffffffffffffffffffff160217905550604082015181600201556060820151816003015560808201518160040160006101000a81548160ff0219169083151502179055505050610aa86005805490506105b5565b5050565b6000610aba82600254610c4c565b905060005b600080549050811015610c47576001151560016000808481548110610b0d577f4e487b7100000000000000000000000000000000000000000000000000000000600052603260045260246000fd5b906000526020600020906003020160010160009054906101000a900473ffffffffffffffffffffffffffffffffffffffff1673ffffffffffffffffffffffffffffffffffffffff1673ffffffffffffffffffffffffffffffffffffffff16815260200190815260200160002060009054906101000a900460ff1615151415610c3457610be460008281548110610bcc577f4e487b7100000000000000000000000000000000000000000000000000000000600052603260045260246000fd5b90600052602060002090600302016002015483610c62565b60008281548110610c1e577f4e487b7100000000000000000000000000000000000000000000000000000000600052603260045260246000fd5b9060005260206000209060030201600201819055505b8080610c3f9061115a565b915050610abf565b505050565b60008183610c5a91906110a5565b905092915050565b60008183610c70919061104f565b905092915050565b600081359050610c8781611201565b92915050565b600081359050610c9c81611218565b92915050565b600081359050610cb18161122f565b92915050565b600060208284031215610cc957600080fd5b6000610cd784828501610c78565b91505092915050565b600060208284031215610cf257600080fd5b6000610d0084828501610ca2565b91505092915050565b60008060408385031215610d1c57600080fd5b6000610d2a85828601610ca2565b9250506020610d3b85828601610c8d565b9150509250929050565b610d4e816110e8565b82525050565b610d5d816110d6565b82525050565b610d6c816110fa565b82525050565b6000610d7f60238361103e565b91507f4e6f742061636365737369626c6520746f206e6f6e2d61646d696e206d656d6260008301527f65727300000000000000000000000000000000000000000000000000000000006020830152604082019050919050565b6000610de560228361103e565b91507f4e6f742061636365737369626c6520746f206e6f6e2d7465616d206d656d626560008301527f72730000000000000000000000000000000000000000000000000000000000006020830152604082019050919050565b6000610e4b602a8361103e565b91507f52657175657374656420416d6f756e74206578636565647320617661696c616260008301527f6c652062616c616e6365000000000000000000000000000000000000000000006020830152604082019050919050565b6000610eb160238361103e565b91507f7573657220616c726561647920766f746564206f6e20746869732070726f706f60008301527f73616c00000000000000000000000000000000000000000000000000000000006020830152604082019050919050565b610f1381611126565b82525050565b60006020820190508181036000830152610f3281610d72565b9050919050565b60006020820190508181036000830152610f5281610dd8565b9050919050565b60006020820190508181036000830152610f7281610e3e565b9050919050565b60006020820190508181036000830152610f9281610ea4565b9050919050565b6000602082019050610fae6000830184610f0a565b92915050565b600060a082019050610fc96000830188610f0a565b610fd66020830187610d45565b610fe36040830186610f0a565b610ff06060830185610f0a565b610ffd6080830184610d63565b9695505050505050565b600060608201905061101c6000830186610f0a565b6110296020830185610d54565b6110366040830184610f0a565b949350505050565b600082825260208201905092915050565b600061105a82611126565b915061106583611126565b9250827fffffffffffffffffffffffffffffffffffffffffffffffffffffffffffffffff0382111561109a576110996111a3565b5b828201905092915050565b60006110b082611126565b91506110bb83611126565b9250826110cb576110ca6111d2565b5b828204905092915050565b60006110e182611106565b9050919050565b60006110f382611106565b9050919050565b60008115159050919050565b600073ffffffffffffffffffffffffffffffffffffffff82169050919050565b6000819050919050565b600061113b82611126565b9150600082141561114f5761114e6111a3565b5b600182039050919050565b600061116582611126565b91507fffffffffffffffffffffffffffffffffffffffffffffffffffffffffffffffff821415611198576111976111a3565b5b600182019050919050565b7f4e487b7100000000000000000000000000000000000000000000000000000000600052601160045260246000fd5b7f4e487b7100000000000000000000000000000000000000000000000000000000600052601260045260246000fd5b61120a816110d6565b811461121557600080fd5b50565b611221816110e8565b811461122c57600080fd5b50565b61123881611126565b811461124357600080fd5b5056fea2646970667358221220edff0390950c8443bda735114c83528cc2694d18396f709715bcd80613eda66964736f6c63430008000033",
  "immutableReferences": {},
  "source": "// SPDX-License-Identifier: MIT\npragma solidity >=0.8.0 <0.9.0;\n\nimport \"./Team.sol\";\nimport \"@openzeppelin/contracts/utils/math/SafeMath.sol\";\n\ncontract Treasury is Team {\n  using SafeMath for uint;\n\n  uint approvalLimit;\n\n  struct TransferRequest {\n    uint amount;\n    address payable recipient;\n    uint approvalCount;\n    uint id;\n    bool completed;\n  }\n\n  TransferRequest[] public transferRequests;\n  mapping(address => mapping(uint => bool)) voted;\n\n  constructor(uint _limit, address[] memory members) Team(members) public {\n    approvalLimit = _limit;\n  }\n\n  // accept public deposits\n  function deposit() public payable {\n  }\n\n  function transferRequest(uint _amount, address payable _recipient) public teamOnly {\n    require(address(this).balance >= _amount, \"Requested Amount exceeds available balance\");\n    transferRequests.push(TransferRequest(_amount, _recipient, 0, transferRequests.length, false));\n    approveRequest(transferRequests.length);\n  }\n\n  function approveRequest(uint _id) public teamOnly {\n    require(voted[msg.sender][_id] == false, \"user already voted on this proposal\");\n    voted[msg.sender][_id] = true;\n    transferRequests[_id].approvalCount ++;\n    uint _approvals = transferRequests[_id].approvalCount;\n    if(_approvals >= approvalLimit) {\n      payTeam(transferRequests[_id].amount);\n      transferRequests[_id].completed = true;\n    }\n  }\n\n  function payTeam(uint256 _amount) private {\n    uint newPayment = SafeMath.div(_amount, memberCount);\n    for(uint i = 0; i < members.length; i++) {\n      if(isActiveMember[members[i].wallet] == true) {\n        members[i].allowance = SafeMath.add(members[i].allowance, newPayment);\n      }\n    }\n  }\n\n  function requestCount() public view virtual returns(uint) {\n    return transferRequests.length;\n  }\n\n}\n",
  "sourcePath": "/Users/esengulov/WebstormProjects/HS-DAO/multisig/contracts/Treasury.sol",
  "compiler": {
    "name": "solc",
    "version": "0.8.0+commit.c7dfd78e.Emscripten.clang"
  },
  "schemaVersion": "3.4.1",
  "updatedAt": "2021-07-15T12:59:50.042Z",
  "networkType": "ethereum",
  "devdoc": {
    "kind": "dev",
    "methods": {},
    "version": 1
  },
  "userdoc": {
    "kind": "user",
    "methods": {},
    "version": 1
  }
}